:020000040800F2
:1000000050150020A9010008B5160008B716000811
:10001000B9160008BB160008BD1600080000000055
:10002000000000000000000000000000BF160008F3
:10003000C116000800000000C3160008C71600081B
:10004000C3010008C3010008C3010008C301000880
:10005000C3010008C3010008C3010008C301000870
:10006000C3010008C3010008C3010008C301000860
:10007000C3010008C3010008C3010008C301000850
:10008000C3010008C3010008C3010008000000000C
:10009000000000000000000000000000C301000894
:1000A000C3010008C3010008C3010008C301000820
:1000B000C3010008C3010008C3010008C301000810
:1000C000C3010008C3010008C3010008C301000800
:1000D000C3010008C3010008C301000800000000BC
:1000E000C3010008C301000829190008000000002E
:1000F000000000000000000000000000C301000834
:1001000000000000C3010008C3010008C30100088B
:1001100000000000000000000000000000000000DF
:10012000C3010008C3010008C3010008C30100089F
:10013000C3010008000000000000000000000000F3
:10014000000000000000000000000000311900085D
:10015000C3010008C3010008C3010008C30100086F
:10016000C3010008C30100080000000000000000F7
:10017000000000000000000000000000000000007F
:1001800000000000C30100080000000000000000A3
:10019000C3010008DFF80CD003F0AEF900480047B7
:1001A00047160008501500200648804706480047BB
:1001B000FEE7FEE7FEE7FEE7FEE7FEE7FEE7FEE717
:1001C000FEE7FEE7D116000895010008284908431C
:1001D00028490860704730B50F23C278017801259F
:1001E000FAB1244A126801F1E02102F4E062C2F59A
:1001F000E062C2F30722C2F10404D3404278A24075
:1002000084781C401443220181F80024007800F017
:100210001F018D404009800000F1E020C0F800512E
:1002200030BD01F01F0085404809800000F1E0204A
:10023000C0F8805130BD104A114001430D48001FE5
:10024000016070470B4A121D0029116801D001435B
:1002500000E08143116070474FF0E02104280869F5
:1002600003D020F004000861704740F00400FAE772
:100270000000FA050CED00E080FFFF1FF94801685F
:1002800041F001010160F74A002108321160026863
:10029000F54B1A400260031DF44A1A60F14BF44A10
:1002A00084331A60F14A103A1B1D1A60026822F466
:1002B00080220260EB480C300160181D016070471D
:1002C000E8490022891C0A70087070470246002025
:1002D000510901290CD002290CD0E2497431096876
:1002E00002F01F02012393400B4200D0012070470F
:1002F000DC49F4E7DB497031F1E718B500204FF431
:10030000A04400903120FFF7E1FF0099491C0091C3
:10031000A14201D00028F5D03120FFF7D7FF0028F7
:1003200000D0012018BDCF4A116821F0F80141EA40
:10033000C00010607047CF4908607047C94900226B
:1003400070310A700A70012802D0042801D10520FA
:1003500008707047C8490860704741EA82115A081E
:1003600010B5C64B029C03EB02421143014341EA24
:100370000460BC49091D086010BDBE49086670478D
:10038000800140EA0170B749843108607047B9497B
:1003900088667047800140EA0160B24940EA027015
:1003A000883108607047B34908677047B149C8642D
:1003B0007047AC4B08331A68084322F0EC621043D4
:1003C00018607047A74B08331A68084322F0784238
:1003D000104318607047A34A0832116821F00301E6
:1003E0000143116070479F480830006800F00C001E
:1003F00070479C4A0832116821F0F00101431160F6
:100400007047984A0832116821F4E05101431160A5
:100410007047944A0832116821F4604141EAC000F3
:100420001060704770B58F4B08331968944C11F009
:100430000C0104D06610042903D0082903D00460FD
:100440001BE0066019E0874A121D1168C1F3805550
:10045000116801F03F0115B1B6FBF1F101E0B4FB09
:10046000F1F114681268C4F388146143C2F30142C5
:10047000521C5200B1FBF2F1016019680F2202EA2E
:100480001111804A545C0168E14041601C680725F5
:1004900005EA9424145D21FA04F484601B6805EADB
:1004A0005333D25CD140C16070BDC0F30121032938
:1004B00008D16C4B08331968734A21F4F8110240D3
:1004C0000A431A60674970310A68C0F30B0002439F
:1004D0000A60704768494439086070476649403986
:1004E000086070476349C1F85C0170475D4A8C320F
:1004F000116821F44011014311607047594A8C3250
:10050000116821F44001014311607047554A8C3253
:100510001168401E21F01F01014311607047514ACC
:100520008C3211686FF0FF0321F4F85103EB0020C7
:100530000843106070474B4A8C32116821F44031F7
:100540000143116070475149C1F8E0017047454AC5
:1005500030320029116801D0014300E0814311606D
:100560007047404A34320029116801D0014300E04D
:100570008143116070473B4A40320029116801D025
:10058000014300E0814311607047364A443200293C
:10059000116801D0014300E0814311607047314A86
:1005A00010320029116801D0014300E0814311603D
:1005B00070472C4A14320029116801D0014300E031
:1005C000814311607047274A20320029116801D009
:1005D000014300E0814311607047224A2432002920
:1005E000116801D0014300E08143116070471D4A4A
:1005F00050320029116801D0014300E081431160AD
:100600007047184A54320029116801D0014300E0B4
:10061000814311607047134A60320029116801D08C
:10062000014300E08143116070470E4A64320029A3
:10063000116801D0014300E081431160704709490E
:1006400070310128086803D020F008000860704766
:1006500040F00800FAE7034A0D320029117817D05C
:10066000014316E000380240FFFFF6EA1030002494
:100670000030002000004742800E47420000FFFF8C
:100680000024F40000000020FFFCFF0F0010474290
:100690008143117070470948016841F08071016021
:1006A00070470146054A0020683A12680A4200D0A5
:1006B000012070470149663908707047743802405C
:1006C000774910B5884206D101210846FFF767FF38
:1006D000002101205BE07349884206D101210220FC
:1006E000FFF75DFF0021022051E06F49884206D1EB
:1006F00001210420FFF753FF0021042047E06B494C
:10070000884206D101210820FFF749FF0021082077
:100710003DE06749884206D101211020FFF73FFFE5
:100720000021102033E06349884206D101212020B6
:10073000FFF735FF0021202029E05F49884206D1DC
:1007400001214020FFF72BFF002140201FE05B49E3
:10075000884206D101218020FFF721FF002180205F
:1007600015E05749884202D1012184150AE0554914
:10077000884202D10121441504E0534988420AD13C
:10078000012104152046FFF70AFF00212046BDE89D
:100790001040FFF704BF10BDF0B5002201274FF055
:1007A000030C0B6807FA02F52B40AB422CD106680C
:1007B00053000CFA03F4A64306600E79D0F800E06B
:1007C0009E4046EA0E0606600E79012E01D0022EEA
:1007D00012D18668A64386604E79D0F808E09E4024
:1007E00046EA0E0686604668AE43466045688E79E6
:1007F0009640B6B235434560C568A543C560CC791F
:100800009C40C3681C43C460521C102AC9D3F0BD6D
:100810004FF6FF7101600021017141718171C17159
:10082000704708B541F480320092C261C1610099FD
:10083000C161C169C069009008BD0246002012690B
:100840000A4200D001207047006980B2704702461A
:10085000002052690A4200D001207047406980B2EE
:10086000704701837047418370470AB10183704725
:10087000418370474161704742694A404261704715
:100880004B07DB0E9A40C90810B500EB8100016AE6
:100890000F249C40A1430162016A1143016210BD13
:1008A000000002400004024000080240000C024028
:1008B000001002400014024000180240001C0240D8
:1008C0000020024000240240002802403549002058
:1008D0000860091D0860091D0860091D086031498C
:1008E000314814310860704730B52E4A8379016869
:1008F00053B313688B431360111D0B680468A34343
:100900000B60017911440B68046823430B60254B8D
:10091000083319680468A14319601C1D2168056823
:10092000A94321604179102905D011440A68006863
:1009300002430A6030BD19680268114319602168DA
:1009400000680143216030BD0079104402688A4389
:10095000026030BD0021016001710C224271817181
:100960007047104910310A6802430A607047014617
:100970000C4A0020143212680A4200D0012070474D
:1009800008491431086070470146064A00201432B5
:1009900012680A4200D001207047024914310860F1
:1009A00070470000003C0140FFFF7F0010B50121AF
:1009B0000C022046FFF711FE2046BDE81040002142
:1009C000FFF70BBE30B54268C84B0C791A400B6874
:1009D00042EA0422134343608268C54B4D791A40B2
:1009E000D1E9034323438C6844EA4504234313437A
:1009F0008360C26A097D22F47002491EC9B242EACC
:100A00000151C16230BD00210160017141718160FD
:100A1000C1600161012101757047B64B10B5D3F873
:100A20000423B5490A40D0E900142143D0E902402B
:100A3000044321431143C3F8041310BD0021016096
:100A400041608160C16070470029816802D041F037
:100A5000010101E021F00101816070474268A74B6C
:100A60001A400A434260704741628262704742689E
:100A700022F01F020A43426070479E490028D1F8C5
:100A8000040302D040F4000001E020F40000C1F8AB
:100A90000403704797490028D1F8040302D040F4BA
:100AA000800001E020F48000C1F80403704770B5B5
:100AB000072609290AD9C568A1F10A0404EB4404F0
:100AC000A640B543A3401D43C56007E0056901EB9F
:100AD0004104A640B543A3401D4305611F23072AD7
:100AE00009D2446B521E02EB820293409C43914018
:100AF0000C43446370BD0D2A09D2046BD21F02EB74
:100B0000820293409C4391400C43046370BDC46ACD
:100B10000D3A02EB820293409C4391400C43C46225
:100B200070BD816841F080418160704701460020BE
:100B30008968490000D5012070470029816802D0EA
:100B400041F4806101E021F48061816070470029F7
:100B5000816802D041F0020101E021F002018160D0
:100B600070474268491E22F4604242EA41314160C6
:100B700070470029416802D041F4006101E021F48E
:100B8000006141607047C06C80B270475948D0F82E
:100B9000080370470029816802D041F4807101E0A8
:100BA00021F48071816070470029816802D041F48E
:100BB000007101E021F40071816070474D49002807
:100BC000D1F8040302D040F4005001E020F40050BA
:100BD000C1F80403704770B5072609290AD9C5680A
:100BE000A1F10A0404EB4404A640B543A3401D430D
:100BF000C56007E0056901EB4104A640B543A34089
:100C00001D430561836BC3F30154121B921C02EB5D
:100C100082021F249440A34391400B43836370BD21
:100C2000826B491E22F4401242EA015181637047EF
:100C300008B508440090026008BD826822F4702262
:100C40000A4382607047826822F440120A4382603D
:100C50007047816841F4800181607047014600203F
:100C60008968490200D5012070470029416802D0F7
:100C700041F4806101E021F4806141607047002906
:100C8000416802D041F4805101E021F4805141607B
:100C9000704708B5084428300090006880B208BD4D
:100CA00001238B4041680AB1194300E09943416038
:100CB00070470246002012680A4200D001207047A7
:100CC000C9430160704730B50246002053680C0AE2
:100CD00001258D4011682B40214202D0002B00D00D
:100CE000012030BD6FEA112101607047FFFEFFFC5B
:100CF000FDF7FFC000200140E030FCFFFFFD3FFF9B
:100D0000204810B54168491C4160816811B1816873
:100D1000491E8160AFF3008010BD1A4B10B51878E2
:100D200000281AD1184801684FF47A70B1FBF0F02E
:100D3000401EB0F1807F11D24FF0E0225061134C81
:100D4000F02084F8140D00209061072010611048F5
:100D5000B1FBF0F0D8600120187010BDFEE7094823
:100D60000078002805D04FF0E020016941F0020131
:100D7000016170474FF0E020016921F0020101613B
:100D80007047000010000020380000200FE000E055
:100D9000C0C62D001CB500200321CDE900011B4C6D
:100DA000034601222021204600F086F9202161839C
:100DB0001CBD1CB5002101200B460A46CDE90001EF
:100DC0004103134800F078F91CBD11481030006849
:100DD0008104104805D4017829B901210170084621
:100DE00070470021017000207047094810300068EA
:100DF0008104084805D5017829B10021017001203E
:100E0000704701210170002070470000000002407F
:100E1000000802402000002008B55D4800905D4BAE
:100E20005D4A01215D4801F017FF5D4800214160E6
:100E30008160C16001210170002008BD5848C06870
:100E400008B100207047012070475548C0688028CD
:100E500001D0002070470120704711B550484F4A1B
:100E60008189008989B280B2803A0DE0802800D162
:100E700000209DF80040135CA34201D1012018BD61
:100E8000401C491E80B289B20029EFD1002018BD54
:100E9000434910B5CB6800228BB18B68802B00D3FF
:100EA0008A603E4B8C68803B1C5D047088681A54D5
:100EB000401C8860C868401EC860032010BD0270D6
:100EC000042010BD01B582B09DF808008DF8000027
:100ED0000121684601F095FE00200EBD10B50446C4
:100EE00002E0641CFFF7EEFF20780028F9D110BD66
:100EF00078B50D4606460024FFF7A0FFD0B90A20BA
:100F0000FFF7ABFF10B9FFF7A0FF98B16D1EAC4221
:100F10000CDA6846FFF7BCFF0328FAD19DF8000001
:100F2000305504F101040A28A4B2F0D10020305554
:100F3000204678BD002078BD194B10B5D9688029AE
:100F40000DD25A68802A01D300225A60134C803C8B
:100F5000A054521C491C5A600020D96010BD0220C8
:100F600010BD0F48007810B10E480078704701207E
:100F700070470D490A6802608A7942714A79827124
:100F80000A790271CA79C2710020C87170470000E5
:100F90007C010020B800002034010020180200204D
:100FA0002400002078010020E40000202DE9F04F0B
:100FB0008A46DDE9099C00214FF0010B4FF0030E3A
:100FC0000BFA01F515EA0A0F21D007684C000EFA5A
:100FD00004F6B74302FA04F847EA08070760012A53
:100FE00001D0022A0DD14768ADB2AF4303FA01F533
:100FF000ADB22F43476085680CFA04F7B5433D4313
:101000008560C568B54309FA04F63543C560491CD7
:10101000C9B21029D4D3BDE8F08FC04AC04990426C
:1010200003D10A6842F001020A60BE4A904203D12D
:101030000A6842F002020A60BB4A904203D10A6881
:1010400042F004020A60B94A904203D10A6842F0B1
:1010500008020A60B64A904203D10A6842F01002C0
:101060000A60B44A904203D10A6842F020020A6042
:10107000B14A904203D10A6842F040020A60AF4A86
:10108000904203D10A6842F080020A60AC4A904262
:1010900003D10A6842F480720A60AA4A904203D1DE
:1010A0000A6842F400720A60A74A904203D10868B5
:1010B00040F4806008607047FCB51646DDE907C55E
:1010C0000C00074608D0FFF7A8FFCDE900C532465F
:1010D00021463846FFF76AFFFCBD2DE9FC4F9946D3
:1010E000DDE90BB792460D00064622D0FFF795FFCB
:1010F000002201214FF00F0C01FA02F028420DD01E
:10110000D00806EB8003186A5407E40E0CFA04F8C2
:1011100020EA080007FA04F420431862521C102A3F
:10112000EAD3CDE9009B5346022229463046FFF719
:101130003DFFBDE8FC8FF0B500220125032605FA2E
:1011400002F30B4205D00468570006FA07F31C436C
:101150000460521CD2B2102AF1D3F0BDF0B50022C7
:101160000125032605FA02F30B4205D00468570057
:1011700006FA07F39C430460521CD2B2102AF1D342
:10118000F0BDF0B500220127032607FA02F33C4622
:101190000B4208D00568530006FA03FC25EA0C054B
:1011A0009C4025430560521CD2B2102AEDD3F0BDFD
:1011B000F0B500220125032605FA02F30B4205D003
:1011C0000468570006FA07F31C430460521CD2B2AD
:1011D000102AF1D3F0BDF0B500230127032507FA4B
:1011E00003F40C4209D0C6685C0005FA04FC26EA48
:1011F0000C0602FA04F42643C6605B1CDBB2102B1B
:10120000EDD3F0BD41F48032C261C161C261C169F8
:10121000C06970470146434A0020914200D1012035
:10122000414A914200D10220404A914200D103201C
:101230003F4A914200D104203E4A914200D105200C
:101240003D4A914200D106203C4A914200D10720FC
:101250003B4A914200D108203A4A914200D10920EC
:10126000394A914200D10A207047002102E0491C0E
:1012700089B240080128FAD808467047274A284909
:10128000904203D10A6822F001020A60254A904286
:1012900003D10A6822F002020A60234A904203D175
:1012A0000A6822F004020A60204A904203D10A68C8
:1012B00022F008020A601E4A904203D10A6822F016
:1012C00010020A601B4A904203D10A6822F02002F1
:1012D0000A60194A904203D10A6822F040020A606B
:1012E000164A904203D10A6822F080020A60144A2A
:1012F000904203D10A6822F480720A60114A904237
:1013000003D10A6822F400720A600F4A904203D1A6
:10131000086820F480600860704700000000024008
:10132000303802400004024000080240000C024035
:10133000001002400014024000180240001C02404D
:1013400000200240002402400028024010B58AB06C
:101350000446002001218DF81410AF4A8DF80500D5
:10136000AE490490039002908DF80400944203D19A
:101370000A6842F480720CE0A94A944203D10A68D8
:1013800042F4007205E0A74A944204D10A6842F48C
:1013900080620A600090089006904FF480300790B9
:1013A0004FF44070099006A8FFF737FB69462046C6
:1013B000FFF708FBA06840F00100A0600AB010BD74
:1013C0001CB501230222CDE9002300230322FFF7ED
:1013D00073FE1CBD9049884202D09149884202D1D7
:1013E0002021914804E08F49884202D120218F4872
:1013F000E6E770478849884202D08949884202D18D
:101400000821894804E08749884202D11021874891
:10141000D6E7704708218448D2E704218248CFE705
:1014200002218148CCE701217F48C9E77A498842F7
:1014300002D07B49884202D102217D4804E07949EB
:10144000884202D108217948BAE770477249884238
:1014500002D07349884202D10121754804E07149E4
:10146000884202D101157148AAE770476A4988424B
:1014700002D06B49884202D180216E4804E069495C
:10148000884202D1411569489AE77047624988420B
:1014900002D06349884202D14021664804E0614994
:1014A000884202D1811561488AE770475A498842CB
:1014B00002D05B49884202D120215E4804E05949AC
:1014C000884202D1802159487AE7704752498842C0
:1014D00002D05349884202D11021564804E05149B4
:1014E000884202D1402151486AE77047082151489B
:1014F00066E704214F4863E702214E4860E7012177
:101500004C485DE710B504464A48F9B101291FD09F
:1015100002291FD003291FD0042921D0052923D057
:10152000062925D0072927D0082929D009292BD019
:101530003D480A290AD00B290AD00C290AD00D29C6
:101540000AD00E2924D00F2926D028E0012104E05A
:10155000022102E0042100E00821FFF731FF1EE034
:101560002046FFF7B3FF1AE02046FFF79FFF16E083
:101570002046FFF78BFF12E02046FFF777FF0EE0D3
:101580002046FFF763FF0AE02046FFF74FFF06E023
:101590002046FFF72FFF02E02046FFF71BFF204603
:1015A000BDE81040D2E610B5012304461A46FFF705
:1015B0007EFAA06840F08040A06020688007FCD5DB
:1015C000E06C80B210BD1448D0F8041341F48001DF
:1015D000C0F8041370471048D0F8041321F48001B8
:1015E000C0F80413704710B50446052301221221E8
:1015F000FFF75DFAA06840F08040A0602068800797
:10160000FCD5E06C43F29031484340F6FF71B0FBEB
:10161000F1F080B210BD00000020014044380240CB
:101620000021014000220140000802400014024055
:10163000000402400000024010B50446C0B2FFF7AB
:1016400041FC204610BD08B500F042F8FFF7A2FBB0
:10165000FFF7E2FB124F00213846FFF753FF03214B
:101660003846FFF74FFF20240E4DFFF77AFC06287F
:1016700001D06C83F9E72C836846FFF709FC032847
:10168000F3D103213846FFF78EFF06460021384686
:10169000FFF789FF0146324603A001F06BFFE4E744
:1016A00000200140000002402534643A20253464C3
:1016B0000A0D00007047FEE7FEE7FEE7FEE7704711
:1016C00070477047704710B5FFF71AFB10BD000058
:1016D000544810B5016841F4700101605248016836
:1016E00041F001010160504A002108321160026896
:1016F0004E4B1A400260031D4D4A1A60026822F4E4
:101700008022026048480C30016000F03CF84549F6
:101710004FF000608039086010BD70B5424D08354B
:101720002868444B444910F00C0004D05E10042893
:1017300003D0082803D00B601BE00E6019E03A4A82
:10174000121D1068C0F38054106800F03F0014B1FF
:10175000B6FBF0F001E0B3FBF0F013681268C3F3DE
:1017600088135843C2F30142521C5200B0FBF2F0FE
:1017700008602868304AC0F30310121D105C0A6824
:10178000C2400A6070BD0CB5002227490092019248
:10179000086840F4803008604FF4A043086800F403
:1017A000003001900098401C0090019810B90098FA
:1017B0009842F3D10868800332D5012001901A487D
:1017C0004030026842F0805202601C48026842F4D5
:1017D00040420260144808300268026002680260F9
:1017E000026842F480520260031F154A1A600A68B8
:1017F00042F080720A600A689201FCD5114A40F2F8
:1018000002711160016821F003010160016841F07B
:10181000020101600168C1F381010229FAD10CBD06
:1018200001920CBD88ED00E000380240FFFFF6FE9B
:10183000103000240024F400380000200070004024
:1018400008544107003C02402DE9FC4101210846B3
:10185000FEF77DFE4FF4C050032500908DF8055033
:1018600002208DF804000024334F8DF806408DF8D7
:10187000074069463846FEF78FFF0A220B2138469B
:10188000FEF7FEFF0A220C213846FEF7F9FF8DF81D
:10189000055078158DF80440012600908DF80660FB
:1018A0008DF8074069463846FEF776FFB0028DF89E
:1018B000066000908DF807608DF80550694638463F
:1018C000FEF76AFF0A2211463846FEF7D9FF0121CA
:1018D0008803FEF75AFE01218020FEF742FEBDE894
:1018E000FC8108B54FF4C060FEF770FC43208DF812
:1018F000000001208DF8010003218DF802108DF801
:1019000003006846FEF767FC08BDC0EB001000212D
:10191000C0000722B0FBF2F0491C8142FCD970479D
:101920004FF47A714843F0E74FF48020FFF735B861
:10193000024800F038BE00000000024018020020FB
:10194000F8B50026044637460096F94D0320FFF708
:10195000DCFFE068006900907F1CAF4201D90020E5
:10196000F8BD00980028F1DA0098002140F001004D
:1019700000900098E2681061E06802690092491CDA
:10198000A94202D8009AD207F7D10320FFF7BDFF82
:101990003046F8BD30B505460020EC78002C0CD15F
:1019A00005EB8202DB1C9B08D2F8D02003E051F843
:1019B000045B1560641C9C42F9D330BD10B504462D
:1019C0000023D21C9008D4F8D02003E0146841F81A
:1019D000044B5B1C8342F9D3084610BD70B500224E
:1019E0000123C27040268370154614468680012963
:1019F00001D061B114E0C3720821017004214FF0DD
:101A0000A04241709115C1800221017208E0C472A8
:101A10000C21017006214170C64A4FF4A061C180BB
:101A200002F50061C0E9032100210AE002EB411345
:101A300003F5106600EB810403F53063A661491CD1
:101A4000636543788B42F1D802F580614161403192
:101A5000C0F8CC10002108E002EB411300EB810438
:101A600003F5A063491CC4F8903003788B42F3D887
:101A7000002108E002EB013300EB810403F5805301
:101A8000491CC4F8D03003788B42F3D802F5606269
:101A9000C0F80C21284670BD70B50446017A0025B7
:101AA000C068012915D0C16841F04001C1602046DD
:101AB000FFF746FF617A4FF4341009B14FF4741008
:101AC000E16888631420FFF72BFFE078012819D024
:101AD00020E0816B627A21F480310AB141F48011F7
:101AE0008163E068C16821F0401121F42021C160C8
:101AF0002046FFF725FFE07801280BD1E1682A2076
:101B00008860E2E7E068816821F01E010A3141F057
:101B100020018160284670BDC0680022816841F0C4
:101B20000101816010467047C0680022816821F081
:101B3000010181601046704738B5002403462246F3
:101B40000094009840F020000090009861F38A1003
:101B500000900098D96808617548D9680B690093AE
:101B6000521C824202D8009B9B06F7D40320FFF749
:101B7000CCFE204638BD38B50024024621460094EC
:101B8000009840F0100000900098D36818616848F1
:101B9000D26813690093491C814202D8009BDB067E
:101BA000F7D40320FFF7B1FE204638BD10B5C36857
:101BB0000024D868012920F0C04201D019B104E006
:101BC00042F0005201E042F08042DA603220FFF73A
:101BD000A7FE204610BDC068406900F001007047B4
:101BE000C068406910F0010F01D00020704701204B
:101BF0007047C068406910F0010000D001207047B4
:101C0000C0684169806908407047C0684068704793
:101C10000069026861F301020260704730B5C36871
:101C2000002211469A61C4686FF080436361C56801
:101C3000541E6C60C4686361C4683F4BA361C37881
:101C400003B91021C06841F4872141F0081183696C
:101C500041F440118B430B438361104630BD2DE9A5
:101C6000F04104460026D0F80C0135462B460660AC
:101C70002069016821F4C0510160E07A012829D16E
:101C800003212046FFF7C4FFE1688020486220213D
:101C90002F46E26861F31F4760F30F07976207EB77
:101CA000174262F30F0360F31F43E068C0F804318A
:101CB00003EB134060F30F03E06861F31F43C0F8C8
:101CC000083103EB134060F30F03E06865F31F4333
:101CD000C0F80C3110212046FFF72EFF2046FFF7F9
:101CE0004AFF206905612069456121694FF0FF3095
:101CF00088612069C56100204FF09043FF2711E003
:101D000004EB8002D2F818C0DCF80010002901DAD8
:101D1000194600E02946CCF8001091690D619169DF
:101D20008F60401C61788142EAD8002018E00000F2
:101D3000400D0300000004400008008004EB800216
:101D4000D2F854C0DCF80010002901DA194600E08E
:101D50002946CCF80010516D0D61516D8F60401C0B
:101D600061788142EAD82069016941F4807101619A
:101D7000E078012809D10320402161F38A0040F472
:101D8000803061F35940216908632046FFF746FF20
:101D90003046BDE8F0810146002009698968C1F339
:101DA000410139B1012903D0022905D0032900D10D
:101DB00002207047032070470120704710B5016969
:101DC0000024896883691A68C1F3410129B1012996
:101DD00003D0022904D0032905D16FF30A0202E0DF
:101DE0006FF30A02D21C1A600069416841F48071E5
:101DF0004160204610BDF0B506460D7800204F78B2
:101E00000124AC40034606EB8502012F18D0526D29
:101E100064F31F43146825040DD40D8965F30A0487
:101E2000CD78897965F3934461F3995444F08051F6
:101E300041F4004111603169CA691A43CA61F0BDB9
:101E4000926964F30F03E5E770B50B78044600254B
:101E50004E7801229A40284604EB8301012E09D0D6
:101E6000496D62F31F400D602169CA698243CA61EE
:101E7000284670BD896962F30F00F4E7F0B54B782E
:101E80000A7800240125D1F814C000EB8202012B4E
:101E900017D0566D32683369BCF1000F64D08D687D
:101EA0000CEB05077F1EB7FBF5F767F3DC43C3F3C5
:101EB000C9476F4367F312033361C378012B59D0CD
:101EC0005EE097693A683E69BCF1000F0DD08B68FF
:101ED0006CF312069C44ACF1010CBCFBF3F363F30E
:101EE000DC46CB78012B05D008E06FF3120665F3D2
:101EF000DC4603E026F0C04606F100563E61C3789A
:101F0000012B0ED0CB78012B12D04B69BBB10B78D3
:101F10009D4003695E6B2E435E63CB78012B07D037
:101F20000DE00D780B6900EB8505AD696B61F4E799
:101F300003699B681B0ADB070CD042F080520B78C8
:101F400042F0044200EB83039B691A60CA78012ABD
:101F500003D026E042F00052F1E78A8A93B20A7871
:101F6000C968FFF717FD1CE08F6867F3120365F37C
:101F7000DC43A1E70D780B6900EB85056D6D6B61A6
:101F8000CB78012B06D14B7913B142F0005201E01E
:101F900042F08052097842F0044200EB8100406D2B
:101FA00002602046F0BDF0B54B7800254A69012B50
:101FB00014D00B7800EB8304636D1E681B69E2B3D9
:101FC0008A684A6162F3060323F4C012636D02F566
:101FD00000221A61C278012A32D037E083691F6873
:101FE0001C6932B18E68B24208D966F306044E61AC
:101FF00006E024F07F0222F4C01203E062F306043C
:1020000024F4C01202F500221A61C278012A05D117
:102010000C780A6900EB8404A469626147F0044209
:102020001A60C278CAB94A69BAB10A78006901214E
:102030009140426B0A4342630FE0FFE70A7AC1E72F
:102040000B780A6900EB83035B6D5A61097846F0EF
:10205000044200EB8100406D02602846F0BD02465C
:102060004B780978002002EB8101012B05D0496DE6
:102070000A6842F400120A6070478A6911680029F0
:1020800001DA41F0804141F400111160704710B550
:1020900003464C780A78002003EB8202012C09D019
:1020A000526D1368C97823F40013032904D0022960
:1020B00002D003E09269F4E743F08053136010BD4F
:1020C00000698169C0690840000C704700EB81011C
:1020D000496D8968006940690840704700698169F5
:1020E000C069084080B27047426D5C491161C17897
:1020F000012908D1426D00F2CC515161406D016857
:102100004FF080210160704710B50446D0F81801E7
:10211000002819D020698068C00715D0A07A30B196
:10212000D4F80C01D4F80C1120F0030008602069E9
:10213000416841F0010141600520FFF7F1FB206992
:10214000416821F00101416010BD817A00290AD067
:1021500001698968C90706D0D0F80C11D0F80C01C4
:1021600021F003010160704710B50446012084F896
:1021700012010020FF2206E004EB80018B699A60C7
:10218000496D8A60401C61788142F5D82169002040
:102190000861216948612169C8612169401E88611F
:1021A0002046FFF7E8FC2046BDE810401021C3E4BC
:1021B0004A780978012A00EB810006D0406D00685A
:1021C00081020ED54FF4805070478069006881020B
:1021D00001D510207047800301D5202070473020A2
:1021E0007047800302D54FF4005070474FF44050C1
:1021F000704730B44C780B78002500EB8303012C3A
:102200000BD05C6D2368B2F5805F17D0B2F5005F2C
:1022100017D0B2F5405F0CD007E09C692368102A04
:1022200005D0202A0DD0302A03D092B113E030BC63
:1022300015E79A0208D54D7130BC28E743F4001326
:1022400009E043F0006306E043F0806040F0802343
:1022500001E023F40043236030BC7047180008C03D
:1022600070B50446FFF7BAFB0120002384F8120181
:1022700084F814311A46402510E002EB820104EB89
:10228000C10181F81D0181F81C21A1F8222181F8EA
:102290001F31C1E94953521CC1F830316178914274
:1022A000EBD8002010E000EB800104EBC10181F8C5
:1022B000753381F87403A1F87A0381F87733C1E9A3
:1022C000DF53401CC1F8883361788142EBD8204647
:1022D000FFF72AFC2046FFF7DFFB00212046FFF72F
:1022E00065FC2046FFF7BBFC2046BDE87040FFF7C9
:1022F00013BC70B50D460E0601F07F0404EB84019B
:1023000000EBC10102D501F58E7101E001F55D71AF
:10231000ED090C704D708A60CB7000D0CC80022B20
:1023200001D100220A71FFF766FD002070BD10B5D3
:102330000B460C0601F07F0202EB820100EBC101AB
:1023400002D501F58E7101E001F55D710A70DA09BF
:102350004A70FFF779FD002010BD10B501F07F0431
:1023600004EB840100EBC101C1F88833C1F880237C
:102370000023C1F88C3381F8753381F87443C37836
:1023800001F55D71012B00D10A6114F0FF0F03D03C
:10239000FFF774FD002010BDFFF705FEFAE770B5EA
:1023A00011F07F0404EB840100EBC1014FF0010543
:1023B00081F81D5181F81C41C1F82821C1F82C2158
:1023C00001F58E714FF00002C1E9053203D0FFF72D
:1023D00055FD002070BDFFF7E6FDFAE70A4610B58F
:1023E000090602F07F0306D503EB830100EBC10170
:1023F00001F58E7105E002EB820100EBC10101F5F0
:102400005D7101248C700B70D2094A70FFF727FEB2
:10241000002010BD0A4610B5090602F07F0306D55C
:1024200003EB830100EBC10101F58E7105E002EBC6
:10243000820100EBC10101F55D7100248C700B700D
:10244000D2094A70FFF723FE002010BD10B50A061E
:1024500004D501F07F01FFF76FFB01E0FFF78BFB75
:10246000002010BD0069002261F30A1201681143C7
:10247000016070470069416821F00201416003205A
:10248000FFF74EBA0069416841F002014160032044
:10249000FFF746BA0A0608D501F07F0101EB81017A
:1024A00000EBC10101F58E7105E001EB810100EB4C
:1024B000C10101F55D71FFF77BBE0B0608D501F088
:1024C0007F0101EB810100EBC10101F58E7105E097
:1024D00001EB810100EBC10101F55D71FFF789BEE0
:1024E0002DE9F04106460024FFF7F8FD074655E0C8
:1024F000F80751D03069E1B20369426BCA4006EB7C
:10250000810102F00102896943EAC2128D68154017
:10251000E9071AD00125426B05FA04F18A434263A8
:1025200006EB840080698560FE48E1B2006842687D
:1025300030469047F078012807D134B996F8110158
:10254000042802D13046FFF7CFFD280704D506EB5B
:102550008400082580698560E80604D506EB8400C0
:10256000102580698560680604D506EB8400402547
:1025700080698560A80704D506EB84000225806980
:102580008560280608D52146304600F060F906EB44
:1025900084018020896988607F08641C002FA7D18E
:1025A0000120BDE8F0812DE9F04706460024FFF741
:1025B00017FB00287ED03046FFF722FB05007AD0BB
:1025C000280303D5304600F07AF90446680303D5A2
:1025D0003046FFF785FF0443A8074FF0000A02D5F5
:1025E000F16802204861DFF83C834FF00109002DBB
:1025F00018DAB07A30B1D6F80C01D6F80C1120F008
:10260000030008603069416821F001014160D8F899
:102610000000816930468847F1684FF0004048610A
:1026200044F00104280503D5304600F0DDF80443EA
:10263000280709D5D8F80000C16830468847F168F6
:102640000820486144F00104E80603D5304600F054
:102650008DF80443E80403D5304600F047F80443FE
:10266000A80419D53046FFF7A9FBF068C7683046C3
:10267000FFF791FB03282FD086F80290402127F422
:102680007050B18000F5A050F168C860F1684FF457
:102690000050486144F00104E8020AD5D8F800006F
:1026A000C16930468847F1684FF48010486144F0B2
:1026B000010401E00DE00DE0A8020AD5D8F8000001
:1026C000016A30468847F1684FF40010486144F0D1
:1026D00001042046BDE8F08786F802A04FF400719F
:1026E00027F47050B18000F51050CDE770B5044666
:1026F000006900250126416821F001014160294659
:102700002046FFF719FA0020FF2206E004EB8001C3
:102710008B699A60496D8A60401C61788142F5D866
:1027200021694FF0FF3088612846216966F30F0068
:1027300066F31F40C861216945F00B0048612169BB
:1027400045F00B0008612069016821F4FE61016019
:102750002046FFF7C9FCE1684FF48050486171489A
:102760000068016920468847012070BD70B50546A4
:10277000C068816921F010018161E868066A06F08D
:102780000F0000EB800005EBC004C6F3434004F5E6
:102790005D74072821D2DFE800F0202004202020EB
:1027A000150047F6F070064217D0C6F30A163246F7
:1027B0002846E168FFF702F9E0683044E060A0696C
:1027C000304409E0082205F2CC512846FFF7F6F81C
:1027D000A069C6F30A110844A061E868816941F064
:1027E00010018161012070BD38B5044600208DF8CC
:1027F000000094F812018DF800004A480068416911
:102800002046884720698068E2684FF40061516182
:10281000A17AD1B1C00718D094F81501012814D1BC
:102820009DF80000032810D1D4F80C01016841F094
:1028300001010160D4F80C01016841F0030101605D
:102840003948016841F006010160012038BD2DE9D9
:10285000F0470E4601EB860100EBC1048146D4E946
:102860004C01401AD4F8241104F58E74814200D230
:102870000846C01C870809EB860812E0451AA068C4
:10288000A84200D20546E81C8708ABB2F2B248461F
:10289000E168FFF77FF8E0682844E060A069284419
:1028A000A061D8F81800806980B2B84205D9D4E98F
:1028B0000501814201D20028E0D101200AE72DE97B
:1028C000F04105460024FFF7FBFB0746DFF8548084
:1028D00048E0F80744D0E1B22846FFF7F7FB064688
:1028E000C0072AD005EB84000126416D8E60E9788F
:1028F00001290CD1406D016904EB840005EBC00097
:10290000C1F31201D0F87C23511AC0F88C13D8F807
:102910000000E1B2026828469047E87801280CD10F
:102920005CB903E02C01002010ED00E095F81101E6
:10293000052802D12846FFF7D7FBB00704D505EBE1
:1029400084000226406D8660300709D5D8F8000063
:1029500081682846884705EB84010820496D886016
:102960007F08641C002FB4D101201AE610B504467C
:10297000022340228121FFF7BCFC022340220121D7
:102980002046FFF7B6FC0323082282212046FFF7EA
:10299000B0FC814902200871002048717F4801681D
:1029A000884740237E4A01212046FFF7D6FC0020BD
:1029B00010BD10B504468121FFF7B9FC0121204666
:1029C000FFF7B5FC82212046FFF7B1FC7348406851
:1029D0008047002010BD70B50C4605467148097847
:1029E0003A2211F06003A0F1310622D0202B05D04D
:1029F0002146284600F01EFB022070BD6748E28891
:102A000083688AB10806607806D566491139984707
:102A10006449E288113920E0C6E905026149284687
:102A2000113900F0C4FA28E0002260781146984776
:102A300023E06178062904D00A2912D00B291CD181
:102A400013E061882123B3EB112F05D15548E288AB
:102A500009303A2A00D93A220146284600F08EFA77
:102A60000BE0504901222D39F7E7608810F0FF0F85
:102A700005D02146284600F0DDFA002070BDC0B226
:102A80007060FAE710B5474C313C6069FF2807D009
:102A90004249A2698B6804F120019847FF206061D8
:102AA000002010BD70B53F4D313D2978012919D165
:102AB0002A69002652B12946402AC9688CB207D932
:102AC00040234031403AC5E9031205E02E7009E089
:102AD0001144C5E9031693B2314940310A198121E5
:102AE000FFF75DFC002070BD10B5044601EB8100CE
:102AF00004EBC000B0F88C0381B228480269284872
:102B000090474023264A01212046FFF726FC00205B
:102B100010BDF0B4234D313D297801290AD0E96870
:102B20000026B1F5006F00D1EE60D5E90221914297
:102B300002D12E70F0BC704702D9C1F5006201E0ED
:102B4000A2EB01022A61402A8CB205D94023403110
:102B5000403AC5E9031203E01144C5E9031693B2F4
:102B6000012129700E4940310A19F0BC8121FFF77B
:102B700016BC0C4A10B5313AD169491CD1610629FD
:102B800003D10021D161FFF7C4FF002010BD432015
:102B9000088004480938704754010020EC000020E8
:102BA0000C0800207D0000200020704700207047A6
:102BB000042824DD244A202802D021281FD10DE03A
:102BC000CB78086863F31F6010600879107148794A
:102BD0005071887990710120D07110E010780870E0
:102BE0001088000A48701068000C88701068000E89
:102BF000C8701079087150794871907988710020F7
:102C00007047F0B50022114E114C4FF4006C17467E
:102C100008E03368855CE5545B1C3360634500D392
:102C20003760521C8A42F4D30020F0BD70B50D46C7
:102C30000646002403E0305DFEF77EF9641CAC42DA
:102C4000F9D3002070BD0000E400002054000020F3
:102C50004C080020002070472DE9F0411D46174622
:102C600088460446069EFEF7EFFD04F2E452414614
:102C700082E8E0002046FFF7F3FAD4F8E8050068A0
:102C800080472046BDE8F041FEF72BBE1CB5044648
:102C9000694600F074FB9DF8002012F01F010AD075
:102CA00001290DD0022910D002F080012046FFF743
:102CB00095FB00201CBD6946204600F067FAF8E746
:102CC0006946204600F0D8FAF3E76946204600F04E
:102CD000EEFAEEE770B5054641B1D5F8E405826934
:102CE000FAB195F8120103282AD02BE095F81101CA
:102CF00005F55D74032825D1A168E069884211D9E2
:102D0000401AE061E878012802D1E0680844E060F8
:102D1000E069884200D3084682B22846E16800F0A4
:102D200056F90FE0D5F8E405016929B195F81201CB
:102D3000032801D128468847284600F051F901E0D0
:102D400028469047002070BD70B5054641B1D5F8C2
:102D5000E40542698AB395F81201032846D047E09A
:102D600095F81101002605F58E74022833D1E1692A
:102D7000A06881420FD9081AE061E878012803D1E0
:102D8000D4E902100844E060A08BE16882B22846D2
:102D900000F004F91FE0216AB1FBF0F200FB12120F
:102DA00062B981420AD3606A814207D20022114689
:102DB000284600F0F3F866620DE016E0D5F8E40569
:102DC000C16829B195F81201032801D12846884726
:102DD000284600F016F995F81601012808D1324866
:102DE00000682969486085F8166101E02846904727
:102DF000002070BD10B50023044640221946FFF79D
:102E000078FA0023402280212046FFF772FA012041
:102E100084F81201D4F8E815A078496888470020A2
:102E200010BD10B50446D0F8E805006980470320BE
:102E300084F81201002010BD10B590F8121180F82E
:102E40001311042180F81211D0F8E805C0688047FA
:102E5000002010BD10B5D0F8E415C96901B188474C
:102E6000002010BD10B50446D0F8E40502682046E5
:102E70009047D4F8E80580688047002010BD10B561
:102E8000D0F8E42552689047002010BD10B5D0F866
:102E9000E415096A8847002010BD10B5D0F8E41584
:102EA000496A8847002010BD3001002012200880A8
:102EB00017487047042008801548001F704710B558
:102EC0000A46144914A000F07CFA124810BD10B54F
:102ED0000A46104919A000F074FA0E4810BD10B54A
:102EE0000A460C491AA000F06CFA0A4810BD10B549
:102EF0000A4608491AA000F064FA064810BD10B549
:102F00000A46044919A000F05CFA024810BD00000E
:102F1000540100204C10002053544D333220566988
:102F2000727475616C20436F6D506F727420696E9E
:102F3000204653204D6F64650000000053544D69D6
:102F400063726F656C656374726F6E6963730000A2
:102F50003030303030303030303530430000000019
:102F600056435020436F6E666967000056435020F9
:102F7000496E7465726661636500000010B5C0F843
:102F80003C210223C0F8382180F811311346002477
:102F90000A462146FFF703FA204610BD10B5134636
:102FA00000240A462146FFF7FAF9204610BD10B565
:102FB000C0F894230323C0F8902380F811311346FE
:102FC00000240A462146FFF7C8F9204610BD10B577
:102FD000134600240A462146FFF7BFF9204610BDDC
:102FE00070B505460024042085F8110123462246C9
:102FF00021462846FFF7D3F92846FFF775F8204603
:1030000070BD70B505460024052085F811012346E2
:10301000224621462846FFF7A0F92846FFF764F824
:10302000204670BD01EB810100EBC100B0F88C03BC
:1030300080B2704710B504468021FFF7CFF9002118
:103040002046FFF7CBF92046BDE81040FFF74CB80B
:1030500070B50A46FB4D897804462970012905D8C8
:1030600094F81201022806D003280BD02046BDE8B0
:1030700070401146DEE7A1B184F81011032084F8F6
:1030800012010BE091B194F81001884209D0014679
:103090002046FFF7F4FE297884F810112046FFF748
:1030A000E1FE2046BDE87040FFF79ABF022084F899
:1030B000120184F810112046FFF7E1FEF1E738B560
:1030C000044648880D46010A04295AD2DFE801F077
:1030D00059021420D4F8EC15A0780A686946904784
:1030E0000146E888402803D094F81201012837D11E
:1030F0000820ADF8000037E0D4F8E415A0788A6A1B
:1031000069469047014602204870C4F8F01527E050
:10311000C0B2062835D2DFE800F003080D12171CF4
:10312000D4F8EC15A0784A6817E0D4F8EC15A0782C
:103130008A6812E0D4F8EC15A078CA680DE0D4F8DB
:10314000EC15A0780A6908E0D4F8EC15A0784A6973
:1031500003E0D4F8EC15A0788A69694690470146E7
:10316000BDF8000000280BD0EA88002A08D080B201
:10317000824200D90246ADF800202046FFF7FEFE4D
:1031800038BD29462046FFF755FF38BD2DE9F041EF
:103190004A78002701260A2A43D2DFE802F03C558C
:1031A0004252420805422A27FFF789FF61E00446A0
:1031B0008888C8B9C888B8B9887800F07F0594F8BD
:1031C0001201032810D084F8145129462046FFF735
:1031D00049F92046FFF704FF1DB1022084F81201CF
:1031E00047E084F8126144E020461AE0FFF730FF20
:1031F0003FE0CA88012A14D190F81221022A02D095
:10320000032A0ED103E08F490122083116E0012282
:1032100000F5887112E090F81221022A04D0032AE6
:1032200002D0FFF707FF24E08649CE60D0F81821CE
:103230000AB10322CA60834902220C31FFF79EFEC5
:1032400017E000F0E1F814E0044690F812010228BB
:1032500001D00328C8D1488801280AD10020C4F829
:103260001801D4F8E4058268204690472046FFF70D
:10327000B7FE3846BDE8F08170B5054690F81201FA
:1032800000260C4603280DD1207901280AD8D5F84C
:10329000E405826828469047E08830B92846FFF761
:1032A0009FFE02E02846FFF7C5FE304670BD70B5B0
:1032B0000D46044609796878002658B3012816D0CF
:1032C000032831D194F8120102282FD0032827D1E6
:1032D000688828B921B1802902D02046FFF77EF8FE
:1032E000D4F8E40529468268204690470EE094F819
:1032F000120102281AD0032812D16888A0B929B176
:10330000802903D02046FFF785F8E9E72046FFF73C
:1033100067FE09E094F81201022807D003280DD0B7
:1033200029462046FFF786FE304670BD0029FBD0B7
:103330008029F9D02046FFF751F8F5E7414A080601
:103340004FF000034FF0010508D501F07F0000EBBE
:10335000800004EBC00090F81E0105E001EB810045
:1033600004EBC00090F8760308B1556000E05360AC
:1033700034490222091D2046FFF700FED4E790F8E9
:10338000CC250A7090F8CD254A7090F8CE2590F89B
:10339000CF3502EB03224A8090F8D02590F8D13542
:1033A00002EB03228A8090F8D22590F8D33502EB05
:1033B000032292B2CA800121C0F8402180F8111185
:1033C000704770B5002300281DD00446002502E098
:1033D0006D1CEDB2641C2678002EF9D1022404EB9A
:1033E00045041480CC545B1C0322CA5400245B1C8B
:1033F00006E0CA545B1CDAB28C54521CD3B2401C97
:103400000278002AF5D170BD10B504464888012223
:1034100001280FD0022833D1888810F0FF0F2FD158
:1034200021694968000A062821D2DFE800F0200D52
:103430001115191DC4F81821D4F8E4058268204636
:10344000904718E06801002021F0700110310EE073
:1034500021F0700120310AE021F07001303106E0E6
:1034600021F07001403102E021F070015031054837
:10347000016084F816212046BDE81040FFF7B0BD7A
:1034800010BD0000300100200F4905200870704772
:103490000D490520087070470B49062008707047D9
:1034A00009490520087070470749052008707047D2
:1034B00005490520087070470349052008707047CA
:1034C00001480078704700007801002030B50B46B5
:1034D000014600202022012409E021FA02F59D4244
:1034E00005D303FA02F5491B04FA02F52844151E18
:1034F000A2F10102F1DC30BD064C074D06E0E068A8
:1035000040F0010394E8070098471034AC42F6D32A
:10351000FCF744FEF83800081839000870B58C181C
:1035200010F8015B15F0070301D110F8013B2A11D7
:1035300006D110F8012B03E010F8016B01F8016BC4
:103540005B1EF9D12B0705D40023521E0DD401F8C0
:10355000013BFAE710F8013BCB1A921C03E013F889
:10356000015B01F8015B521EF9D5A142D8D30020BE
:1035700070BD00000FB4054B10B503A9044A0298B2
:1035800000F018F810BC5DF814FB000039160008B4
:103590003400002002E008C8121F08C1002AFAD136
:1035A00070477047002001E001C1121F002AFBD1C3
:1035B000704700002DE9FF4F8BB088460546002676
:1035C00006E025280BD0DDE90D1290476D1C761C16
:1035D00028780028F5D10FB03046BDE8F08F0024E0
:1035E000A146A2460122AE4900E0044315F8013F7E
:1035F000203B02FA03F00842F7D128782A2810D09D
:103600006FF02F022878A0F13001092915D809EBB5
:10361000890102EB410144F0020400EB01096D1C39
:10362000F0E758F8041B5FEA010903D544F400549D
:10363000C9F1000944F002046D1C28782E2817D126
:1036400015F8010F44F004042A280ED06FF02F0261
:103650002878A0F1300109290AD80AEB8A0102EB87
:10366000410100EB010A6D1CF2E758F804AB6D1C38
:1036700028786C280FD006DC4C2817D068280DD08D
:103680006A2814D104E0742810D07A280FD10DE0F4
:1036900044F400140AE044F4801401E044F44014BB
:1036A0006978814202D104F580146D1C6D1C287864
:1036B000692865D006DC00288DD0632827D06428CF
:1036C00006D15DE06E2808D073282AD0752877D0FF
:1036D000DDE90D129047761CE0E0C4F302500228A9
:1036E00009D003280DD0D8F8001004280DD00E60A2
:1036F00008F10408D2E0D8F80010F217C1E900621E
:10370000F6E7D8F800100E80F2E70E70F0E718F830
:10371000041B8DF8001000208DF80100EB460120FD
:1037200003E058F804BB4FF0FF3061074FF000078B
:1037300001D40AE07F1C57450DDA8742FADB1BF8FB
:1037400007100029F6D106E07F1C8742FCDB1BF83E
:1037500007100029F8D1DDE90D23A9EB0700814608
:10376000214600F0B1F83044C61904E0DDE90D123D
:103770001BF8010B90477F1EF8D22146484688E08F
:1037800058F8040BC4F302514FF00A0B032900D17F
:1037900000B2042900D140B2002802DA40422D21B3
:1037A00002E0210505D52B218DF82410012104E02C
:1037B00006E0E10710D02021F6E708AF089113E0FA
:1037C00058F8040BC4F302514FF00A0B032900D13F
:1037D00080B2042900D1C0B20021EEE75946FFF7BC
:1037E00075FE303107F8011D0028F7D1ADEB070059
:1037F00000F1200B600702D524F4803401E04FF083
:10380000010ADA4502DDAAEB0B0000E00020824647
:1038100000EB0B0108980144A9EB01000A90E003BA
:1038200006D4DDE90D2321460A9800F04DF8064440
:103830004FF0000908E009A911F80900DDE90D12AF
:10384000904709F10109761C08998945F3DBE003EB
:103850000CD5DDE90D2321460A9800F035F8064421
:1038600004E0DDE90D1230209047761CBAF100012A
:10387000AAF1010AF5DC05E0DDE90D1217F8010BEC
:103880009047761CBBF10001ABF1010BF4DC0A9808
:103890002146DDE90D2300F005F806446D1C97E68E
:1038A000092801002DE9F041044600251E4617466F
:1038B000880404D405E039462020B0476D1C641EFE
:1038C000F9D52846BDE8F0812DE9F04104460025F0
:1038D0001E469046C80301D5302700E02027880403
:1038E00004D505E041463846B0476D1C641EF9D545
:1038F0002846BDE8F08100001839000800000020CB
:10390000980100001C350008003A000898010020CA
:10391000B8130000A4350008412D0102030404057A
:10392000290607080984BD0105091A3C0213FF1482
:103930000902431302012DC03209043D190B13057E
:103940002416100105240110090104240202052493
:10395000061701070582030815FF09040133020A4F
:103960002E0705010240072A810711136D291B0844
:10397000B3041AD7044113852A1B08A5041AE904C5
:103980004B732B14412A8F0C33C2011C0801A90C64
:103990001AAD041AB10413032C1B082D041AD50404
:1039A00013492D1B088D0813552E1B08F50C1A39C9
:1039B000081A23041A8D041A9B0491120142201A3A
:1039C000AD141AB5041ACF041ABF041ADF041AEF93
:1039D000041AFF041E0403090412B3311E408304B9
:1039E0004057E92B02037FF132051389341B0891FC
:1039F000041A99041AA1041AA9041AB1041AB904E0
:040000050800019559
:00000001FF
