:020000040800F2
:10000000C84D0220C1010008B1370008B33700080D
:10001000B5370008B7370008B937000800000000FE
:10002000000000000000000000000000BB370008D6
:10003000BD37000800000000BF370008C3370008C4
:10004000DB010008DB010008DB010008DB01000820
:10005000DB010008DB010008DB010008DB01000810
:10006000DB010008DB010008DB010008DB01000800
:10007000DB010008DB010008DB010008DB010008F0
:10008000DB010008DB010008DB010008DB010008E0
:10009000DB010008DB010008DB010008DB010008D0
:1000A000DB010008DB010008DB010008DB010008C0
:1000B000DB010008DB010008DB010008DB010008B0
:1000C000DB010008DB010008DB010008DB010008A0
:1000D000DB010008DB010008DB010008DB01000890
:1000E000DB010008DB010008DB010008DB01000880
:1000F000DB010008DB010008DB010008DB01000870
:10010000DB010008DB010008DB010008DB0100085F
:10011000DB010008DB010008DB010008DB0100084F
:10012000DB010008DB010008DB010008DB0100083F
:10013000DB010008DB010008DB010008DB0100082F
:10014000DB010008DB010008DB010008DB0100081F
:10015000DB010008DB010008DB010008DB0100080F
:10016000DB010008DB010008A93A0008A33A0008F7
:10017000953A00089D3A0008DB010008DB01000801
:10018000DB010008DB010008DB010008DB010008DF
:10019000DB010008DB010008DB010008DB010008CF
:1001A000DB010008DB010008DB010008DFF80CD0F0
:1001B00005F028FB0048004747350008C84D0220DD
:1001C0000648804706480047FEE7FEE7FEE7FEE7F1
:1001D000FEE7FEE7FEE7FEE7FEE7FEE78B380008F6
:1001E000AD0100082849084328490860704730B528
:1001F0000F23C27801780125FAB1244A126801F16F
:10020000E02102F4E062C2F5E062C2F30722C2F12B
:100210000404D3404278A24084781C401443220155
:1002200081F80024007800F01F018D404009800013
:1002300000F1E020C0F8005130BD01F01F00854002
:100240004809800000F1E020C0F8805130BD104A1C
:10025000114001430D48001F016070470B4A121DF9
:100260000029116801D0014300E08143116070470B
:100270004FF0E0210428086903D020F00400086151
:10028000704740F00400FAE70000FA050CED00E0CA
:1002900080FFFF1FF948016841F001010160F74A42
:1002A0000021083211600268F54B1A400260031DFC
:1002B000F44A1A60F14BF44A84331A60F14A103A56
:1002C0001B1D1A60026822F480220260EB480C3089
:1002D0000160181D01607047E8490022891C0A70FE
:1002E0000870704702460020510901290CD00229EC
:1002F0000CD0E2497431096802F01F0201239340D7
:100300000B4200D001207047DC49F4E7DB49703133
:10031000F1E718B500204FF4A04400903120FFF71A
:10032000E1FF0099491C0091A14201D00028F5D0BD
:100330003120FFF7D7FF002800D0012018BDCF4A99
:10034000116821F0F80141EAC00010607047CF4900
:1003500008607047C949002270310A700A7001288C
:1003600002D0042801D1052008707047C8490860F0
:10037000704741EA82115A0810B5C64B029C03EB44
:1003800002421143014341EA0460BC49091D08606F
:1003900010BDBE4908667047800140EA0160B74958
:1003A00040EA0270843108607047B8498866704737
:1003B000800140EA0160B14940EA0270883108607A
:1003C0007047B24908677047B049C8647047AB4B83
:1003D00008331A68084322F0EC6210431860704733
:1003E000A64B08331A68084322F07842104318607D
:1003F0007047A24A0832116821F0030101431160DD
:1004000070479E480830006800F00C0070479B4A17
:100410000832116821F0F001014311607047974ADA
:100420000832116821F4E051014311607047934A8A
:100430000832116821F4604141EAC0001060704741
:1004400070B58E4B08331968934C11F00C0104D031
:100450006610042903D0082903D004601BE006605D
:1004600019E0864A121D1168C1F38055116801F028
:100470003F0115B1B6FBF1F101E0B4FBF1F11468F5
:100480001268C4F388146143C2F30142521C520043
:10049000B1FBF2F1016019680F2202EA11117F4AE3
:1004A000545C0168E14041601C68072505EA94241A
:1004B000145D21FA04F484601B6805EA5333D25CAE
:1004C000D140C16070BDC0F30121032908D16B4B3D
:1004D00008331968724A21F4F81102400A431A607D
:1004E000664970310A68C0F30B0002430A60704726
:1004F000674944390860704765494039086070476A
:100500006249C1F85C0170475C4A8C32116821F481
:100510004011014311607047584A8C32116821F430
:100520004001014311607047544A8C321168401EEB
:1005300021F01F01014311607047504A8C3211684D
:100540006FF0FF0321F4F85103EB00200843106023
:1005500070474A4A8C32116821F4403101431160DE
:1005600070475049C1F8E0017047444A30320029D1
:10057000116801D0014300E08143116070473F4A98
:1005800034320029116801D0014300E08143116039
:1005900070473A4A38320029116801D0014300E01F
:1005A000814311607047354A40320029116801D0FB
:1005B000014300E0814311607047304A4432002912
:1005C000116801D0014300E08143116070472B4A5C
:1005D00010320029116801D0014300E0814311600D
:1005E0007047264A14320029116801D0014300E007
:1005F000814311607047214A18320029116801D0E7
:10060000014300E08143116070471C4A20320029F9
:10061000116801D0014300E0814311607047174A1F
:1006200024320029116801D0014300E081431160A8
:100630007047124A50320029116801D0014300E08E
:100640008143116070470D4A54320029116801D06E
:10065000014300E0814311607047084A5832002985
:10066000116801D0014300E0814311607047034AE3
:1006700060320029116817D0014316E000380240AB
:10068000FFFFF6EA1030002400300020000047424F
:10069000800E47420000FFFF0024F400000000200D
:1006A000FFFCFF0F00104742814311607047194A59
:1006B0000029116801D0014300E0814311607047B7
:1006C00014490C310128086803D020F008000860A4
:1006D000704740F00800FAE70E4A573A00291178AF
:1006E00001D0014300E08143117070470948103088
:1006F000016841F08071016070470146054A0020A1
:10070000583A12680A4200D0012070470149563910
:100710000870704764380240774910B5884206D1A6
:1007200001210846FFF753FF002101205BE07349D8
:10073000884206D101210220FFF749FF0021022053
:1007400051E06F49884206D101210420FFF73FFFA5
:100750000021042047E06B49884206D1012108208E
:10076000FFF735FF002108203DE06749884206D1A8
:1007700001211020FFF72BFF0021102033E06349F7
:10078000884206D101212020FFF721FF00212020EF
:1007900029E05F49884206D101214020FFF717FF79
:1007A000002140201FE05B49884206D101218020C2
:1007B000FFF70DFF0021802015E05749884202D144
:1007C000012184150AE05549884202D101214415CE
:1007D00004E0534988420AD1012104152046FFF75D
:1007E000F6FE00212046BDE81040FFF7F0BE10BD28
:1007F000F0B5002201274FF0030C0B6807FA02F551
:100800002B40AB422CD1066853000CFA03F4A643EC
:1008100006600E79D0F800E09E4046EA0E060660BB
:100820000E79012E01D0022E12D18668A643866071
:100830004E79D0F808E09E4046EA0E06866046688B
:10084000AE43466045688E799640B6B23543456002
:10085000C568A543C560CC799C40C3681C43C4608F
:10086000521C102AC9D3F0BD4FF6FF710160002160
:10087000017141718171C171704708B541F48032D5
:100880000092C261C1610099C161C169C0690090F3
:1008900008BD0246002012690A4200D001207047BC
:1008A000006980B270470246002052690A4200D0B7
:1008B00001207047406980B27047018370474183CF
:1008C00070470AB1018370474183704741617047A7
:1008D00042694A40426170474B07DB0E9A40C908A3
:1008E00010B500EB8100016A0F249C40A143016216
:1008F000016A1143016210BD000002400004024081
:1009000000080240000C02400010024000140240A7
:1009100000180240001C0240002002400024024057
:1009200000280240354900200860091D0860091DA3
:100930000860091D0860314931481431086070476A
:1009400030B52E4A8379016853B313688B43136023
:10095000111D0B680468A3430B60017911440B68F7
:10096000046823430B60254B083319680468A143CE
:1009700019601C1D21680568A9432160417910296F
:1009800005D011440A68006802430A6030BD196846
:10099000026811431960216800680143216030BD7D
:1009A0000079104402688A43026030BD0021016072
:1009B00001710C22427181717047104910310A682F
:1009C00002430A60704701460C4A00201432126844
:1009D0000A4200D00120704708491431086070476E
:1009E0000146064A0020143212680A4200D0012053
:1009F000704702491431086070470000003C014014
:100A0000FFFF7F0010B501210C022046FFF707FE13
:100A10002046BDE810400021FFF701BE30B5426816
:100A2000C84B0C791A400B6842EA04221343436016
:100A30008268C54B4D791A40D1E9034323438C6842
:100A400044EA4504234313438360C26A097D22F4C8
:100A50007002491EC9B242EA0151C16230BD002193
:100A60000160017141718160C16001610121017505
:100A70007047B64B10B5D3F80423B5490A40D0E906
:100A800000142143D0E90240044321431143C3F839
:100A9000041310BD0021016041608160C160704796
:100AA0000029816802D041F0010101E021F001013B
:100AB000816070474268A74B1A400A434260704702
:100AC000416282627047426822F01F020A4342601C
:100AD00070479E490028D1F8040302D040F400007A
:100AE00001E020F40000C1F8040370479749002892
:100AF000D1F8040302D040F4800001E020F480002B
:100B0000C1F80403704770B5072609290AD9C568DA
:100B1000A1F10A0404EB4404A640B543A3401D43DD
:100B2000C56007E0056901EB4104A640B543A34059
:100B30001D4305611F23072A09D2446B521E02EB95
:100B4000820293409C4391400C43446370BD0D2A44
:100B500009D2046BD21F02EB820293409C43914066
:100B60000C43046370BDC46A0D3A02EB82029340E9
:100B70009C4391400C43C46270BD816841F0804148
:100B800081607047014600208968490000D5012036
:100B900070470029816802D041F4806101E021F4AE
:100BA0008061816070470029816802D041F00201B4
:100BB00001E021F00201816070474268491E22F481
:100BC000604242EA4131416070470029416802D0E9
:100BD00041F4006101E021F4006141607047C06CA4
:100BE00080B270475948D0F80803704700298168DF
:100BF00002D041F4807101E021F48071816070477E
:100C00000029816802D041F4007101E021F40071F3
:100C1000816070474D490028D1F8040302D040F4A8
:100C2000005001E020F40050C1F80403704770B593
:100C3000072609290AD9C568A1F10A0404EB44046E
:100C4000A640B543A3401D43C56007E0056901EB1D
:100C50004104A640B543A3401D430561836BC3F324
:100C60000154121B921C02EB82021F249440A343E6
:100C700091400B43836370BD826B491E22F4401286
:100C800042EA01518163704708B508440090026050
:100C900008BD826822F470220A438260704782682D
:100CA00022F440120A4382607047816841F4800157
:100CB00081607047014600208968490200D5012003
:100CC00070470029416802D041F4806101E021F4BD
:100CD0008061416070470029416802D041F4805131
:100CE00001E021F480514160704708B50844283084
:100CF0000090006880B208BD01238B4041680AB1B2
:100D0000194300E099434160704702460020126891
:100D10000A4200D001207047C9430160704730B5D6
:100D20000246002053680C0A01258D4011682B40B3
:100D3000214202D0002B00D0012030BD6FEA1121EA
:100D400001607047FFFEFFFCFDF7FFC0002001407F
:100D5000E030FCFFFFFD3FFFD24910B5884202D1D1
:100D600001214C050AE0D049884202D101218C05BD
:100D700004E0CE4988420AD10121CC052046FFF784
:100D800044FC2046BDE810400021FFF73EBC10BDEA
:100D90007FB5044680880D4620F03F066846FFF781
:100DA0004FFBC3490298B0FBF1F189B20E43A68014
:100DB000228822F001022280BE4B2A689A421BD868
:100DC0005200B0FBF2F080B2042800D20420491C8B
:100DD0002184A083208840F00100208020884FF6E5
:100DE000F5310840A9886A89114301432180A88907
:100DF0002989084320817FBDEB88A3F53F46FF3E4C
:100E00000BD002EBC20303EB0212B0FBF2F080B294
:100E100040F48040020506D007E002EB4202B0FB3E
:100E2000F2F080B2F6E740F001004FF496725143C1
:100E30004FF47A72B1FBF2F140F40040C7E741F29F
:100E400088310160002181804BF6FF72C2800181F0
:100E500041814FF48041818170470029018802D08F
:100E600041F0010101E021F00101018070470029FA
:100E7000818C02D021F0100101E041F01001818449
:100E80007047828C01F00F0122F00F021143818420
:100E900070470029018802D041F4807101E021F4FB
:100EA0008071018070470029018802D041F40071EF
:100EB00001E021F400710180704712B141F001019D
:100EC00001E001F0FE01018270470029018802D093
:100ED00041F4806101E021F48061018070478289E2
:100EE00001F0FE0122F0FE021143818170470029CA
:100EF000818902D041F0010101E021F001018181ED
:100F000070470029018802D041F0400101E021F042
:100F10004001018070470029018802D041F400415E
:100F200001E0C1F30E01018070470029018803D060
:100F300021F080010180704741F08001FAE7B1F5AE
:100F4000804F818B02D021F4804101E041F4804147
:100F500081837047B1F5006F018803D021F40061EF
:100F60000180704741F40061FAE7B1F5005F018844
:100F700003D021F400510180704741F40051FAE799
:100F80000029018802D041F0100101E021F0100198
:100F90000180704701827047008AC0B27047002903
:100FA000018802D041F4805101E021F48051018098
:100FB0007047B1F5006F018803D021F40061018012
:100FC000704741F40061FAE70029018802D041F03E
:100FD000200101E021F0200101807047008B000A10
:100FE00070470029818802D041F4006101E021F4BA
:100FF0000061818070470029818802D041F48051CE
:1010000001E021F480518180704708B508440090C8
:10101000008808BD002A828801D00A4300E08A4384
:1010200082807047034600209A8A1B8B42EA034263
:1010300022F07F42914300D101207047818A008BCA
:1010400041EA004121F07F4070470CB50246002084
:1010500000920A0F21F07F41019202D0009A1432CF
:1010600002E0009A090C1832009212680A4200D07D
:1010700001200CBDC9438182704710B50346002092
:101080009A884FF4E06404EA11449B8A224021F0DC
:101090007F410B4202D0002A00D0012010BDC9437D
:1010A000818270470054004000580040005C0040BE
:1010B00040420F00A0860100C14910B5884202D10C
:1010C0000121841424E0BF49884202D10121041483
:1010D00004E0BD4988420AD10121C4132046FFF72C
:1010E00094FA2046BDE810400021FFF78EBAB749B8
:1010F000884202D1012144140AE0B549884202D154
:1011000001210C0504E0B34988420AD101214C05B4
:101110002046FFF784FA2046BDE810400021FFF783
:101120007EBA10BD30B502884C8802F441530A885B
:10113000CD8822438C882C4322430C8922434C893E
:1011400022438C892243CC8922431A430280828B1A
:1011500022F400628283098A018230BDF0B5022246
:101160000023858B01244FF240063540858302849D
:10117000868B8D68022D3DD08A8802B10224964A62
:1011800013681B0203D5136823F400031360924A0B
:101190007C3213681268C3F388138F4FC2F3027254
:1011A0003F1F3D683F6805F03F057F0201D58B4F2B
:1011B00000E08B4FB7FBF5F55D43B5FBF2F2CB8852
:1011C000B3F5007F2BD06301B2FBF3F202EB820296
:1011D0008B685200B2FBF3F2521D92B20A23B2FBAB
:1011E000F3F202F00103D21A4FF6FF74C2F34F027A
:1011F00004EA0323941EFE2C01D302220023CC8890
:101200001A43144304840A884B881A438B888989BB
:101210000B431A43324342F400618183F0BD120A4A
:10122000D4E70021018041808180C180018141811A
:101230008181C181072101827047002101804180A5
:101240008180C180022282608181704700290188EB
:1012500002D041F0400101E021F0400101807047DF
:101260000029818B02D041F4806101E021F480618A
:1012700081837047028822F40062028002880A4358
:1012800002807047B1F5804F018803D021F480417E
:101290000180704741F48041FAE7A1F57E42018860
:1012A000FF3A02D041F4807101E021F480710180A5
:1012B00070470029818802D041F0040101E021F04B
:1012C0000401818070470029818802D041F010011B
:1012D00001E021F010018180704730B5828B00233E
:1012E0004FF240042240828302220284848B0A88C7
:1012F0004FF48075B2F5007F00D002B92B464A88C2
:101300008D8889892A4319430A43224342F40061A4
:10131000818330BD808970478181704700290188B1
:1013200002D041F4005101E021F4005101807047E6
:10133000018841F4805101807047012901D0008B60
:101340007047808A7047008A7047002A828801D0DF
:101350000A4300E08A4382807047090901238B40D9
:10136000002A828899B201D00A4300E08A43828031
:1013700070470246002012890A4200D001207047BF
:10138000C9430181704730B501F00F0301250246C2
:1013900005FA03F40020A3B2090905FA01F49188C3
:1013A000A4B2128921401A4202D0002900D00120A3
:1013B00030BD01F00F0201219140C9430181704706
:1013C0000030014000380040003C00400034014043
:1013D00000500140005401400838024000127A00D9
:1013E0000024F400204810B54168491C4160816820
:1013F00011B18168491E8160AFF3008010BD1A4BA6
:1014000010B5187800281AD1184801684FF47A707E
:10141000B1FBF0F0401EB0F1807F11D24FF0E0221E
:101420005061134CF02084F8140D002090610720C7
:1014300010611048B1FBF0F0D8600120187010BDA9
:10144000FEE709480078002805D04FF0E020016948
:1014500041F00201016170474FF0E020016921F085
:1014600002010161704700001000002024370220B3
:101470000FE000E0C0C62D001CB503210020CDE91F
:10148000000103464C0301222146194800F086F969
:1014900017481A3004801CBD1CB500210220CDE97C
:1014A00000010B460A460121124800F077F91CBDE5
:1014B00010480069C107104805D0017829B90121F9
:1014C00001700846704700210170002070470948EC
:1014D0000069C107084803D001210170002070474E
:1014E00001780029FAD00021017001207047000026
:1014F00000180240000002402000002008B55D48AE
:1015000000905D4B5D4A00215D4803F001FD5D48A0
:10151000002141608160C16001210170002008BD8F
:101520005848C06808B100207047012070475548EE
:10153000C068802801D0002070470120704711B595
:1015400050484F4A8189008989B280B2803A0DE0C3
:10155000802800D100209DF80040135CA34201D1F7
:10156000012018BD401C491E80B289B20029EFD16C
:10157000002018BD434910B5CB6800228BB18B68A1
:10158000802B00D38A603E4B8C68803B1C5D0470CE
:1015900088681A54401C8860C868401EC8600320D0
:1015A00010BD0270042010BD01B582B09DF8080086
:1015B0008DF800000121684603F07FFC00200EBD7D
:1015C00010B5044602E0641CFFF7EEFF2078002807
:1015D000F9D110BD78B50D4606460024FFF7A0FFEF
:1015E000D0B90A20FFF7ABFF10B9FFF7A0FF98B101
:1015F0006D1EAC420CDA6846FFF7BCFF0328FAD137
:101600009DF80000305504F101040A28A4B2F0D17D
:1016100000203055204678BD002078BD194B10B50C
:10162000D96880290DD25A68802A01D300225A60D5
:10163000134C803CA054521C491C5A600020D960B5
:1016400010BD022010BD0F48007810B10E48007880
:101650007047012070470D490A6802608A7942711B
:101660004A7982710A790271CA79C2710020C871FF
:1016700070470000B8380220E8370220683802209E
:101680005439022024000020B438022018380220E7
:101690002DE9F04F8A46DDE9099C00214FF0010B4E
:1016A0004FF0030E0BFA01F515EA0A0F21D0076877
:1016B0004C000EFA04F6B74302FA04F847EA0807AA
:1016C0000760012A01D0022A0DD14768ADB2AF43AD
:1016D00003FA01F5ADB22F43476085680CFA04F7B1
:1016E000B5433D438560C568B54309FA04F6354303
:1016F000C560491CC9B21029D4D3BDE8F08FC04AD7
:10170000C049904203D10A6842F001020A60BE4A11
:10171000904203D10A6842F002020A60BB4A90423A
:1017200003D10A6842F004020A60B94A904203D128
:101730000A6842F008020A60B64A904203D10A6879
:1017400042F010020A60B44A904203D10A6842F0A3
:1017500020020A60B14A904203D10A6842F0400276
:101760000A60AF4A904203D10A6842F080020A60E0
:10177000AC4A904203D10A6842F480720A60AA4AD5
:10178000904203D10A6842F400720A60A74A90426C
:1017900003D1086840F4806008607047FCB51646C5
:1017A000DDE907C50C00074608D0FFF7A8FFCDE923
:1017B00000C5324621463846FFF76AFFFCBD2DE9D9
:1017C000FC4F9946DDE90BB792460D00064622D044
:1017D000FFF795FF002201214FF00F0C01FA02F0F4
:1017E00028420DD0D00806EB8003186A5407E40E97
:1017F0000CFA04F820EA080007FA04F420431862FF
:10180000521C102AEAD3CDE9009B534602222946F6
:101810003046FFF73DFFBDE8FC8FF0B50022012503
:10182000032605FA02F30B4205D00468570006FAB6
:1018300007F31C430460521CD2B2102AF1D3F0BD4E
:10184000F0B500220125032605FA02F30B4205D06C
:101850000468570006FA07F39C430460521CD2B296
:10186000102AF1D3F0BDF0B500220127032607FAB4
:1018700002F33C460B4208D00568530006FA03FC0D
:1018800025EA0C059C4025430560521CD2B2102A63
:10189000EDD3F0BDF0B500220125032605FA02F3D1
:1018A0000B4205D00468570006FA07F31C43046096
:1018B000521CD2B2102AF1D3F0BDF0B5002301279B
:1018C000032507FA03F40C4209D0C6685C0005FA48
:1018D00004FC26EA0C0602FA04F42643C6605B1CEC
:1018E000DBB2102BEDD3F0BD41F48032C261C16197
:1018F000C261C169C06970470146434A00209142F4
:1019000000D10120414A914200D10220404A914237
:1019100000D103203F4A914200D104203E4A914227
:1019200000D105203D4A914200D106203C4A914217
:1019300000D107203B4A914200D108203A4A914207
:1019400000D10920394A914200D10A207047002174
:1019500002E0491C89B240080128FAD808467047BD
:10196000274A2849904203D10A6822F001020A60FE
:10197000254A904203D10A6822F002020A60234AF3
:10198000904203D10A6822F004020A60204A904281
:1019900003D10A6822F008020A601E4A904203D16D
:1019A0000A6822F010020A601B4A904203D10A68BA
:1019B00022F020020A60194A904203D10A6822F0FC
:1019C00040020A60164A904203D10A6822F080025F
:1019D0000A60144A904203D10A6822F480720A60B5
:1019E000114A904203D10A6822F400720A600F4A39
:1019F000904203D1086820F48060086070470000BE
:101A0000000002403038024000040240000802405A
:101A1000000C024000100240001402400018024076
:101A2000001C024000200240002402400028024026
:101A300010B58AB00446002001218DF81410AF4A79
:101A40008DF80500AE490490039002908DF80400D3
:101A5000944203D10A6842F480720CE0A94A94428D
:101A600003D10A6842F4007205E0A74A944204D107
:101A70000A6842F480620A600090089006904FF471
:101A8000803007904FF44070099006A8FEF7F1FFF0
:101A900069462046FEF7C2FFA06840F00100A06042
:101AA0000AB010BD1CB501230222CDE9002300239A
:101AB0000322FFF773FE1CBD9049884202D0914972
:101AC000884202D12021914804E08F49884202D106
:101AD00020218F48E6E770478849884202D089492B
:101AE000884202D10821894804E08749884202D10E
:101AF00010218748D6E7704708218448D2E704219F
:101B00008248CFE702218148CCE701217F48C9E71D
:101B10007A49884202D07B49884202D102217D481D
:101B200004E07949884202D108217948BAE7704730
:101B30007249884202D07349884202D10121754816
:101B400004E07149884202D101157148AAE7704743
:101B50006A49884202D06B49884202D180216E488E
:101B600004E06949884202D1411569489AE7704703
:101B70006249884202D06349884202D140216648C6
:101B800004E06149884202D1811561488AE77047C3
:101B90005A49884202D05B49884202D120215E48DE
:101BA00004E05949884202D1802159487AE77047B8
:101BB0005249884202D05349884202D110215648E6
:101BC00004E05149884202D1402151486AE77047F8
:101BD0000821514866E704214F4863E702214E4837
:101BE00060E701214C485DE710B504464A48F9B169
:101BF00001291FD002291FD003291FD0042921D079
:101C0000052923D0062925D0072927D0082929D03E
:101C100009292BD03D480A290AD00B290AD00C29C2
:101C20000AD00D290AD00E2924D00F2926D028E069
:101C3000012104E0022102E0042100E00821FFF775
:101C400031FF1EE02046FFF7B3FF1AE02046FFF702
:101C50009FFF16E02046FFF78BFF12E02046FFF7BC
:101C600077FF0EE02046FFF763FF0AE02046FFF70C
:101C70004FFF06E02046FFF72FFF02E02046FFF768
:101C80001BFF2046BDE81040D2E610B501230446F4
:101C90001A46FEF738FFA06840F08040A060206838
:101CA0008007FCD5E06C80B210BD1448D0F8041356
:101CB00041F48001C0F8041370471048D0F80413B1
:101CC00021F48001C0F80413704710B504460523C1
:101CD00001221221FEF717FFA06840F08040A060AB
:101CE00020688007FCD5E06C43F29031484340F611
:101CF000FF71B0FBF1F080B210BD00000020014088
:101D00004438024000210140002201400008024006
:101D10000014024000040240000002407CB504258B
:101D2000012438B1012812D0032802D1F748AFF3BB
:101D300000807CBD01231A461902F548CDE9004513
:101D4000FFF73DFD01231A465902F24804E0012342
:101D5000F1481A464FF4C071CDE90045FFF72FFD59
:101D60007CBD1CB50421012248B101280FD00228F6
:101D700014D0032802D1E948AFF300801CBDCDE99F
:101D8000002101231A464FF44061E5480CE0CDE9FB
:101D9000002101231A460321E24805E0CDE9002194
:101DA00001231A463021DC48FFF709FD1CBD1CB594
:101DB0000421DB4C012248B101280DD0022812D0A9
:101DC000032802D1D848AFF300801CBDCDE9002123
:101DD00001231A46C0210CE0CDE9002101231A4657
:101DE0004FF4407105E0CDE9002101231A464FF47C
:101DF00010712046FFF7E3FC1CBD2DE9FF47154697
:101E00000446C94A0026C948C94F4FF480484BF6DA
:101E1000FF7994420CD1026842F400120260084635
:101E2000FFF7C5FF3868A84200D93D6038681EE05A
:101E3000BA4A94420CD1026842F480020260084619
:101E4000FFF78FFF7868A84200D97D6078680EE0C0
:101E5000AE4A944216D1026842F40002026008467B
:101E6000FFF75CFFB868A84200D9BD60B868ADF85C
:101E70000460ADF808600090ADF80C80ADF80A6021
:101E8000ADF80690208820F00100208069462046A9
:101E9000FEF77EFF208840F001002080BDE8FF872C
:101EA00070B50446008820F480602080208840F4CB
:101EB000007020809E4D44F620602D1F9D4E2860AE
:101EC00003E02A68521E2A6008D031462046FFF7F8
:101ED000A9F80028F5D0208AC0B270BD012070BDDD
:101EE00070B50446008840F480702080904D44F620
:101EF00020662D1F2E6003E02868401E28602AD02F
:101F0000A08AC007F8D01BB1208840F480602080F0
:101F10005AB921F0010020822E6003E02868401E9B
:101F2000286018D0A08A8007F8D5012A10D141F086
:101F3000010020822E607F4E3E3E03E02868401E56
:101F4000286008D031462046FFF76CF80028F5D00D
:101F5000208B002070BD012070BD754A44F62061C1
:101F6000121F116003E01168491E11600BD0818AB5
:101F70000906F8D5818A4907F5D5018841F4007131
:101F800001800020704701207047694B44F62062B1
:101F90001B1F1A60828A120603D41A680AB1521EE5
:101FA000F7E70182704770B5164600230C460546D8
:101FB0001A46FFF795FF31462846FFF7E6FF284609
:101FC000FFF7CBFF0023012221462846FFF788FFB9
:101FD0002846BDE8704063E770B50546008840F4C8
:101FE00080602880524C44F62060241F514E2060AF
:101FF00003E02268521E226008D031462846FFF7CF
:1020000011F80028F5D0288AC0B270BD012070BD3B
:102010002DE9F0411D4616460C468046012300225C
:10202000069FFFF75DFF31464046FFF7AEFF404693
:10203000FFF793FF01231A4621464046FFF750FF62
:1020400000247E1E0AE0B442404602D1FFF728FF7A
:1020500001E0FFF7C1FF2855641CE4B2BC42F2D393
:10206000BDE8F08110B5012304461A46FFF738FF9A
:102070002046BDE8104013E72DE9F0411E46154605
:10208000012380461A46FFF72BFF0024771E0AE043
:10209000BC42404602D1FFF703FF01E0FFF79CFF7F
:1020A0002855641CE4B2B442F2D3D9E770B51D469A
:1020B0001646002304461A46FFF712FF3146204613
:1020C000FFF763FF29462046FFF75FFF2046BDE884
:1020D000704042E72DE9F0411D46144600230746B3
:1020E0001A46069EFFF7FCFE21463846FFF74DFFD5
:1020F000002405E0295D3846FFF747FF641CE4B281
:10210000B442F7D33846BDE8F04126E7005C004012
:102110000000024000080240001C0240005800403D
:1021200000040240001402400054004040380240C5
:10213000480000204000030070B515460023044607
:102140001A46FFF7CDFE29462046FFF71EFF204620
:10215000BDE8704001E72DE9F0411D461646002319
:1021600007461A46FFF7BCFE002405E0315D3846FD
:10217000FFF70BFF641CE4B2AC42F7D33846BDE86E
:10218000F041EAE670B50024054601232246FFF738
:10219000A7FE00B901242846FFF7DFFE204670BDE8
:1021A00070B505464FF40051FD48FEF786FBFD4C27
:1021B00004212046FEF783FB2946FB4800F081FFFF
:1021C0002046BDE870400421FEF777BB70B5054698
:1021D0004FF40051F248FEF772FBF24C0421204606
:1021E000FEF76DFB2946F04800F06BFF2046BDE886
:1021F00070400421FEF761BB2DE9F04107461C4603
:1022000015460E462A20FFF7E1FF380AFFF7C8FF00
:10221000F8B2FFF7C5FF280AFFF7C2FFE8B2FFF7E1
:10222000BFFF2B20FFF7D2FF300AFFF7B9FFF0B254
:10223000FFF7B6FF200AFFF7B3FFE0B2BDE8F041B9
:10224000AEE72DE9F041050AC7B2D84841880088B9
:10225000491E8BB2401E82B200210846FFF7CCFF18
:102260002C20FFF7B3FF00244FF49636E8B2FFF7B7
:1022700097FF3846FFF794FF641CB442F6D3BDE8DD
:10228000F08101B5009801E0401E00900028FBD1CC
:1022900008BD10B54FF48051C148FEF70EFB012078
:1022A000FFF794FFC248FFF7ECFFCB20FFF78EFF4C
:1022B0003920FFF775FF2C20FFF772FF0020FFF792
:1022C0006FFF3420FFF76CFF0220FFF769FFCF207C
:1022D000FFF77CFF0020FFF763FFC120FFF760FFDF
:1022E0003020FFF75DFFE820FFF770FF8520FFF744
:1022F00057FF0020FFF754FF7820FFF751FFEA2037
:10230000FFF764FF0020FFF74BFF0020FFF748FFB7
:10231000ED20FFF75BFF6420FFF742FF0320FFF78C
:102320003FFF1220FFF73CFF8120FFF739FFF72026
:10233000FFF74CFF2020FFF733FFC020FFF746FFD9
:102340002320FFF72DFFC120FFF740FF1020FFF7EC
:1023500027FFC520FFF73AFF3E20FFF721FF282087
:10236000FFF71EFFC720FFF731FF8620FFF718FF9A
:102370003620FFF72BFF4820FFF712FF3A20FFF728
:1023800025FF5520FFF70CFFB120FFF71FFF0020AE
:10239000FFF706FF1820FFF703FFB620FFF716FF31
:1023A0000820FFF7FDFE8220FFF7FAFE2720FFF747
:1023B000F7FEF220FFF70AFF0020FFF7F1FE2A20C8
:1023C000FFF704FF0020FFF7EBFE0020FFF7E8FE19
:1023D0000020FFF7E5FEEF20FFF7E2FE2B20FFF7DE
:1023E000F5FE0020FFF7DCFE0020FFF7D9FE0120FC
:1023F000FFF7D6FE3F20FFF7D3FE2620FFF7E6FECD
:102400000120FFF7CDFEE020FFF7E0FE0F20FFF7F1
:10241000C7FE3120FFF7C4FE2B20FFF7C1FE0C20C2
:10242000FFF7BEFE0E20FFF7BBFE0820FFF7B8FE49
:102430004E20FFF7B5FEF120FFF7B2FE3720FFF781
:10244000AFFE0720FFF7ACFE1020FFF7A9FE032028
:10245000FFF7A6FE0E20FFF7A3FE0920FFF7A0FE60
:102460000020FFF79DFEE120FFF7B0FE0020FFF700
:1024700097FE0E20FFF794FE1420FFF791FE032035
:10248000FFF78EFE1120FFF78BFE0720FFF788FE77
:102490003120FFF785FEC120FFF782FE4820FFF7BD
:1024A0007FFE0820FFF77CFE0F20FFF779FE0C204F
:1024B000FFF776FE3120FFF773FE3620FFF770FE40
:1024C0000F20FFF76DFE1120FFF780FE3948FFF760
:1024D000D8FE2920FFF77AFEBDE810402C2075E6D3
:1024E0002DE9FC41012500242D4E23462A4669038F
:1024F0003046CDE90045FFF751F92A4F002301226C
:1025000004213846CDE90045FFF748F9CDE90054EC
:102510000122002311033046FFF740F90421384619
:10252000FEF7CBF90021204800F0B8FCFFF7B1FE20
:102530001E48F021001F44800480001D01804FF4DC
:10254000A07141800571BDE8FC414FF6FF7078E64F
:1025500029203BE6282039E610B514460B460246F2
:10256000FFF74AFE2C20FFF731FEC4F30720FFF7E8
:1025700017FEE0B2BDE8104012E62DE9F041044636
:102580003620FFF723FE094DF0274FF4A0769CB1CB
:10259000012C13D0022C18D0032C18D01AE0000004
:1025A000000C02400008024000500140580000208A
:1025B00080841E0040420F00582000E08820FFF772
:1025C000EFFD2F806E80012007E0282000E0E8204A
:1025D000FFF7E6FD2E806F80002028714FE62DE981
:1025E000F05FDFF84084DDE90AB9A8F80000924600
:1025F000A8F802101A781E46104408F10402128846
:10260000904206D972781144A8F802100021A8F867
:102610000010002529E0AAF1200111FB005072688A
:10262000002432F810701CE007FA04F0000409D509
:10263000B8F80210B8F800002944204489B280B2EA
:102640005A460BE0B9F1000F0ADBB8F80210B8F8EF
:1026500000002944204489B280B24A46FFF77CFF3B
:10266000641C3078A042DFD86D1C7078A842D2D8A4
:102670003178B8F800201144A8F80010BDE8F09FA8
:102680002DE9FC47E74DDDE90A9828801F461446EE
:10269000064669800BE00A2A0ED00D2A15D0CDE936
:1026A00000983B4669882888641CFFF798FF2278C9
:1026B000002AF0D1BDE8FC8768887978401C08447E
:1026C000688060780D2802D02E80641CEFE700201F
:1026D0002880641CF9E730B54D7800241D8002E0A5
:1026E0000B7823449CB210F8013B002BF8D11480E6
:1026F00030BD2DE9FC5F9046CA4A0C46121D0546C6
:1027000011881F46481EA94200D885B2414501D80C
:102710001FFA80F85188481EA14200D884B2B942FD
:1027200000D887B2454502D2A8EB050001E0A5EB31
:1027300008000FFA80FABC4201D2381B00E0E01B0F
:102740000FFA80F94FF0FF30454501D2012100E03A
:1027500001460191BC4200D2012051460090CA4579
:1027600001DD084601E0C9F1000000EBD070401027
:1027700006B2CAF1000B214628460C9AFFF7ECFE80
:10278000454501D1BC4211D030465E4505DDA0EB88
:1027900009010EB2019929448DB24845EBDA06EBE6
:1027A0000A0006B20098204484B2E4E7BDE8FC9F2A
:1027B0002DE9F8431D46089C16460F4680460B46F9
:1027C0000094FFF796FF42462B4639461046009488
:1027D000FFF78FFF32462B46394610460094FFF72D
:1027E00088FF2B463246194640460094FFF781FF8A
:1027F000BDE8F8832DE9F8431D4617460C46804690
:10280000089E08E023463A46194640460096FFF7E0
:1028100070FF641CA4B2AC42F4D3E9E72DE9FF4F8A
:102820000746C2F1010014460FFA80F8C2EBC4302B
:1028300040000FFA80F983B00E46081981B24FF0BC
:10284000010A0025B8B2069AFFF786FE301B81B256
:10285000B8B2069AFFF780FE3819B1B280B2069A74
:10286000FFF77AFEB1B2381B56E0B8F1000F09DB72
:1028700009F102000FFA80F9641E08EB090024B286
:102880000FFA80F80AF102000FFA80FA6D1C08EBCB
:102890000A002DB20FFA80F87819019006EB040BAC
:1028A0001FFA8BF180B2069AFFF756FE781B009054
:1028B0001FFA8BF180B2069AFFF74EFE0198A6EB45
:1028C000040B1FFA8BF180B2069AFFF745FE0098C1
:1028D0001FFA8BF180B2069AFFF73EFE381901907D
:1028E00006EB050B1FFA8BF180B2069AFFF734FE58
:1028F000381B00901FFA8BF180B2069AFFF72CFE6E
:102900000198A6EB050B1FFA8BF180B2069AFFF730
:1029100023FE00981FFA8BF180B2069AFFF71CFE87
:10292000A542A2DB07B0BDE8F08F2DE9FE4F0746B8
:10293000C2F1010014460FFA80F8C2EBC430400027
:102940000FFA80FA0E46081981B299464FF0010B32
:102950000025B8B21A46FFF7FFFD301B81B2B8B2AE
:102960004A46FFF7F9FD38190290B1B280B24A46E3
:10297000FFF7F2FD381B0190B1B280B24A46FFF773
:10298000EBFD0298B3B2CDF8009082B2B1B240E054
:10299000B8F1000F09DB0AF102000FFA80FA641E99
:1029A00008EB0A0024B20FFA80F80BF102000FFACC
:1029B00080FB6D1C08EB0B002DB20FFA80F8781924
:1029C00082B20290781BCDE9009031198BB289B2A6
:1029D00080B2FFF78EFE0198311B82B202988BB253
:1029E000CDF8009089B280B2FFF783FE381B82B227
:1029F00002903819CDE9009071198BB289B280B27A
:102A0000FFF777FE711B02988BB2CDF8009082B26F
:102A100089B2019880B2FFF76CFEA542B8DBBDE831
:102A2000FE8F00005400002010B50021744A01E020
:102A3000491CC9B202EB41139B891B0401D50A2929
:102A4000F6D30A291CD002EB411203881380438875
:102A5000538083889380C388D380038913814389FB
:102A60005381838948F201042343938103691361ED
:102A7000038B138343695361C069D06148B210BDB1
:102A80004FF0FF3010BD7FB55D4901EB4014A089C8
:102A9000010402D4002004B070BD40071DD50026FB
:102AA00017E0002510E0A088E1696843400000EBD2
:102AB00046000A5A6088284481B22088304480B297
:102AC000FFF74AFD6D1CADB2E088A842EBD8761C3A
:102AD000B6B2A088B042E4D80BE0208900906188AB
:102AE000E088A288084483B22088024492B2FFF7AB
:102AF00081FE207B00071FD4D4E9040103AB02AAA6
:102B0000FFF7E9FD2088A188E28800EB5100BDF8BD
:102B100008102389A0EB5100618880B201EB5201BB
:102B2000BDF80C20A1EB5201228BCDE90023D4E9A2
:102B3000042389B2FFF7A4FD207B80070BD46089B2
:102B400000906188E088A288084483B2208802440B
:102B500092B2FFF72DFE01209DE770B5284D0024AD
:102B600005EB44108089000402D52046FFF78BFF57
:102B7000641CE4B20A2CF3D370BD70B5204D002163
:102B800005EB4112137BDB0711D003881488A342A5
:102B90000DD9968834449C4209D943885488A3426D
:102BA00005D9D28822449A4201D948B270BD491C45
:102BB000C9B20A29E4D34FF0FF3070BD104901EBD0
:102BC0004010818941F00101818170470C4901EB7E
:102BD0004010818921F0010181817047084901EB92
:102BE0004010818921F400418181704700B50022A5
:102BF0001046FFF7F3FF521CD2B20A2AF8D300BDE9
:102C0000483F02201CB528B1032802D1FE48AFF38B
:102C100000801CBD05210320CDE9000100231A46D8
:102C20004FF4E041F948FEF7CAFD1CBD7CB505250F
:102C3000F74E032438B101280BD0032802D1F54800
:102C4000AFF300807CBD00231A464FF4607130461C
:102C50000CE000231A464FF400613046CDE90045F0
:102C6000FEF7ADFD0023EC481A46C021CDE9004532
:102C7000FEF7A5FD7CBD1CB50522E84C032138B14B
:102C800001280BD0032802D1E548AFF300801CBD1A
:102C9000CDE9001200231A46642105E0CDE90012B7
:102CA00000231A464FF4E0412046FEF788FD1CBD84
:102CB0001CB50622032138B101280CD0032802D10B
:102CC000D848AFF300801CBDCDE9001200231A469E
:102CD0003821D54806E0CDE9001200231A464FF40A
:102CE000E051D248FEF76BFD1CBD7CB50525CE4EEC
:102CF000032448B1012815D0022819D0032802D195
:102D0000CB48AFF300807CBD00231A464FF48061AE
:102D10003046CDE90045FEF752FD00231A460C214E
:102D2000C24809E000231A464FF46041304603E0F0
:102D30000023C0481A460D21CDE90045FEF73FFDAE
:102D40007CBD1CB50522032138B101280CD0032815
:102D500002D1B948AFF300801CBDCDE900120023B9
:102D60001A46E021B54805E0CDE9001200231A46D5
:102D70003821AD48FEF723FD1CBD2DE9FF4F85B07E
:102D80000446DDE912BA994616466846FEF749FA46
:102D9000A948AB4F0025844208D1386840F48050E0
:102DA00038600698FFF7CDFFADF80450A048DFF873
:102DB00090828442A8F104080AD1D8F8001041F4A6
:102DC0008041C8F800100698FFF78FFFADF8045057
:102DD000944884420AD1D8F8001041F40041C8F860
:102DE00000100698FFF764FFADF804508C48844249
:102DF00008D1386840F4005038600698FFF73BFF70
:102E0000ADF804508348844208D1386840F48010FB
:102E100038600698FFF70AFFADF804507A488442FC
:102E200008D1386840F4001038600698FFF7EAFED1
:102E3000ADF80450ADF80C90ADF800504FF40070B0
:102E4000ADF80EA0ADF802B0ADF80A0046B1012110
:102E5000012E08D00220022E08D0032E0BD00EE047
:102E6000ADF8065004E0ADF8065006E0ADF80600F7
:102E7000ADF8085003E0ADF80600ADF80810208862
:102E800020F04000208069462046FEF74BF920885C
:102E900040F04000208009B0BDE8F08F2DE9FC41F2
:102EA0000446654800250F464FF48276844205D1DA
:102EB000CDE9006520230022FFF75FFF5C488442D4
:102EC00006D1CDE90065202300223946FFF755FFE2
:102ED0005448844206D1CDE90065202300223946BA
:102EE000FFF74BFF4E48844206D1CDE90065202311
:102EF00000223946FFF741FF4648844206D1CDE91A
:102F00000065202300223946FFF737FF3E48844200
:102F100006D1CDE90065202300223946FFF72DFFB9
:102F2000BDE8FC812DE9FC410446434800251746D5
:102F300088464FF48276844204D1CDE9006520238F
:102F4000FFF71BFF3A48844206D1CDE900652023F4
:102F50003A464146FFF711FF3248844206D1CDE997
:102F6000006520233A464146FFF707FF2C4884427C
:102F700006D1CDE9006520233A464146FFF7FDFE24
:102F80002448844206D1CDE9006520233A464146D3
:102F9000FFF7F3FE1C488442C2D1CDE9006520232F
:102FA0003A464146FFF7E9FEBAE72DE9FC470446F9
:102FB000DDE90A6520481F4690468946844205D1CE
:102FC000CDE9006513463A46FFF7D7FE184884421C
:102FD00006D1CDE9006543463A464946FFF7CDFEA6
:102FE0001048844206D1CDE9006543463A46494639
:102FF000FFF7C3FE0A48844226D1CDE90065434667
:103000003A4649461EE000000054014000180240C4
:103010000014024000500140001C02400010024019
:1030200000340140003C004000040240000802401F
:103030000038004000200240003001400000024003
:1030400044380240FFF799FE7548844206D1CDE925
:10305000006543463A464946FFF78FFE7148844271
:1030600006D1CDE9006543463A464946FFF785FE5D
:10307000BDE8FC877FB50D00044620D06846FDF70B
:10308000DFF96948844208D06848844205D0644822
:10309000844202D06348844201D1039900E002993E
:1030A00000200124421C04FA02F3B1FBF3F3AB420B
:1030B00002D8C00004B070BDD0B20828F2D33820C6
:1030C000F8E702899207FCD002891206F9D48181BF
:1030D00001898907FCD001890906F9D48089C0B229
:1030E000704730B50489A407FCD004892406F9D4BC
:1030F00000240BE00D5D85810589AD07FCD00589B5
:103100002D06F9D485891555641CA4B29C42F1D3CF
:1031100030BD10B503899B07FCD003891B06F9D489
:1031200000230AE0CC5C84810489A407FCD00489D4
:103130002406F9D484895B1C9BB29342F2D310BD60
:1031400030B50489A407FCD004892406F9D40024EE
:103150000AE082810589AD07FCD005892D06F9D4E6
:1031600085890D55641CA4B29C42F2D330BD0289FE
:103170009207FCD002891206F9D48181018989075E
:10318000FCD001890906F9D48089704730B50489DB
:10319000A407FCD004892406F9D400240DE031F8FA
:1031A000145085810589AD07FCD005892D06F9D419
:1031B000858922F81450641CA4B29C42EFD330BD20
:1031C00010B503899B07FCD003891B06F9D40023A3
:1031D0000BE031F8134084810489A407FCD00489F2
:1031E0002406F9D484895B1C9BB29342F1D310BDB1
:1031F00030B50489A407FCD004892406F9D400243E
:103200000BE082810589AD07FCD005892D06F9D434
:10321000858921F81450641CA4B29C42F1D330BDBE
:103220000050014000540140003001400034014092
:1032300002468221BD48FEF7B6BE1CB5FEF7DFF898
:10324000BA4CBB4A00212046FEF7D7FD02230322D9
:1032500082212046FEF72AFF052000F05CF90023BA
:10326000032282212046FEF721FF022000F053F9BD
:103270000221009101AB002282212046FEF7C8FE08
:10328000BDF8040041BAA1F50062113A01D0032053
:103290001CBD0223032282212046FEF707FF0520E2
:1032A00000F039F90023032282212046FEF7FEFEBA
:1032B000022000F030F90420FFF7BAFF20F00103EC
:1032C000042282212046FEF7F1FE0420FFF7B0FF22
:1032D00020F00203042282212046FEF7E7FE492364
:1032E000202282212046FEF7E1FE022000F013F9A1
:1032F0000123212282212046FEF7D8FE1720FFF766
:1033000097FF40F01E03172282212046FEF7CEFED3
:103310009A23412282212046FEF7C8FE01234A2239
:1033200082212046FEF7C2FE01234B228221204645
:10333000FEF7BCFE00234B2282212046FEF7B6FE9C
:103340000123562282212046FEF7B0FE0123582297
:1033500082212046FEF7AAFE032340228221204636
:10336000FEF7A4FEFF230B2282212046FEF79EFEDD
:10337000022000F0D0F802201CBD70B504464F209A
:10338000FFF756FF60F30F255020FFF751FF60F362
:103390000705A5F5B47528B20B2190FBF1F001B239
:1033A000002901DC002104E0B1F5A07F01DB40F23F
:1033B0003F11A14201DD081B00E0601A00B20428A1
:1033C00001DD88B270BD204670BD70B504464D2049
:1033D000FFF72EFF60F30F254E20FFF729FF60F364
:1033E000070529B240F6B830814202DCA1F63C71F3
:1033F00001E0A1F6D861484200B20F2190FBF1F044
:1034000001B2EF2901DDEF2102E0002900DA0021FD
:10341000A14201DD081B00E0601A00B2042801DDB2
:1034200088B270BD204670BD70B5044600796071E9
:103430004020FFF7FDFE3D4E00064FF001050DD484
:10344000257101234B2282213046FEF72FFE0023F7
:103450004B2282213046FEF729FE5AE0A07930B196
:10346000012811D0022818D0032821D02AE0208872
:10347000FFF7ABFFC0F1EF0020806088FFF77DFF12
:10348000A0F23F10404206E02088FFF79EFF208018
:103490006088FFF772FF608014E06088FFF795FF97
:1034A00060802088FFF769FFA0F23F10404208E0EB
:1034B0002088FFF78AFFC0F1EF0060802088FFF7C7
:1034C0005CFF208001234B2282213046FEF7EEFD77
:1034D00000234B2282213046FEF7E8FDA07900212F
:1034E0004FF49F7260B101280AD02088401E90429C
:1034F0000ED2608860B1EF280AD22171002070BD21
:103500002088401EEE2803D2608808B19042F4D98A
:103510002571012070BD074908B50A6800920A6844
:10352000009BD21A8242FAD308BD0000005C004022
:10353000A08601001400002010B50446C0B2FEF7BA
:1035400033F8204610BD96B000F09FF9FDF794FFC8
:10355000FEF7C6FF47F6EF363046FEF772FE012053
:10356000FFF70BF801208DF85200FFF766FE0A27DF
:10357000ADF80C701E20ADF80E004FF0DB08ADF872
:1035800010804FF032094FF4784500245AA0ADF86E
:103590001290ADF814500790DFF868A1ADF816400E
:1035A000ADF8244003A8CDF820A0FFF73DFA029023
:1035B000ADF80C705A20ADF80E0053A0ADF81450C1
:1035C0000790ADF81080ADF816405248ADF8129053
:1035D0000A90ADF82440CDF820A003A8FFF724FA04
:1035E00007464D48006840040AD4F8B2FFF7EEFAE7
:1035F000CDE90056534649A2DC211920FFF740F8D7
:10360000FFF7ABFACDE90046A246494B49A2F521A6
:103610002D20FFF735F8FDF771FFDFF834B10021F9
:103620005C465846FEF7E0FA03212046FEF7DCFA36
:103630004FF4FC684FF4005913A8FFF7F5FE00287B
:1036400030D113A8FFF799FA040005D4621C41A1F8
:103650000BA802F029F903E043A10BA802F024F91A
:103660000298844214D12C48016881F480410160A1
:103670000068244B400405D5CDE90086DC213FA23B
:1036800019200DE0CDE90056DC2124A2192007E025
:10369000BC4207D1CDE900A6254B3DA264210A20FA
:1036A000FEF7EEFFCDE90086164B0BAA05210A2096
:1036B000FEF7E6FFFDF7C7FF0628484603D0164988
:1036C000891D0880B8E71449091D088015A8FDF771
:1036D00051FF0328B0D103215C465846FEF7D5FAC6
:1036E000009000212046FEF7D0FA01462DA0009A56
:1036F00002F0CAF8A0E70000427574746F6E2031C2
:10370000000000003C000020427574746F6E20328F
:10371000000000005E00002014180240427574741E
:103720006F6E732064697361626C656421000000D0
:103730003400002070726570617265642020202062
:103740002020202020726573657276656400000079
:1037500000200140507265737365643A20427574AD
:10376000746F6E2025640000507265737320746856
:103770006520627574746F6E200000004275747469
:103780006F6E7320656E61626C65642120000000BD
:10379000627574746F6E2032207072657373656425
:1037A000000000002534643A202534640A0D00002E
:1037B0007047FEE7FEE7FEE7FEE770477047704799
:1037C000704710B5FDF70EFE10BD00001CB50021BE
:1037D0005B4A00910191106840F4803010604FF412
:1037E000A043106800F4003001900098401C009045
:1037F000019810B900989842F3D11068800342D51F
:10380000012001904E484030016841F08051016034
:103810004C49086840F44040086049480830036853
:103820000360036843F400430360036843F4A05358
:103830000360041F444B2360136843F080731360DC
:1038400013689B01FCD50A6842F480320A604A681A
:10385000D203FCD50A6842F400320A604A68920337
:10386000FCD53A4A40F205711160016821F003016C
:103870000160016841F0020101600168C1F381014A
:103880000229FAD11CBD01911CBD314810B5016857
:1038900041F4700101602A48016841F001010160B2
:1038A000274A00210832116002682A4B1A40026040
:1038B000031D294A1A60026822F48022026020480F
:1038C0000C300160FFF782FF21494FF00060803922
:1038D000086010BD70B51A4D083528681F4B204987
:1038E00010F00C0004D05E10042803D0082803D088
:1038F0000B601BE00E6019E0114A121D1068C0F346
:103900008054106800F03F0014B1B6FBF0F001E005
:10391000B3FBF0F013681268C3F388135843C2F383
:103920000142521C5200B0FBF2F0086028680C4AB9
:10393000C0F30310121D105C0A68C2400A6070BD1B
:10394000003802400070004008544007003C02402C
:1039500088ED00E0FFFFF6FE103000240024F400A4
:10396000243702202DE9FC4101210220FCF7FDFD56
:1039700003258DF8055002274FF440408DF8047060
:103980000024DFF82C8100908DF806408DF8074068
:1039900069464046FCF72CFF0C220E214046FCF7FE
:1039A0009BFF0C220F214046FCF796FF8DF8055037
:1039B00038038DF80440012600908DF806608DF8DC
:1039C000074069464046FCF713FF0C220D21404694
:1039D000FCF782FF8DF8055030038DF804700090DD
:1039E0008DF806608DF8076069464046FCF700FFD9
:1039F0000C2211464046FCF76FFF01218803FCF7BB
:103A0000DCFD01214807FCF7B0FDBDE8FC8138B5BD
:103A10004FF4C0652846FCF7E5FB4D208DF800000B
:103A200001248DF8014003208DF802008DF8034039
:103A30006846FCF7DCFB2846FCF7D4FB4A208DF8EF
:103A400000008DF8014002208DF802008DF803403F
:103A50006846FCF7CCFB2846FCF7C4FB4B208DF8EE
:103A600000008DF801408DF802408DF80340684653
:103A7000FCF7BDFB38BDC0EB00100021C0000722E1
:103A8000B0FBF2F0491C8142FCD970474FF47A71C7
:103A90004843F0E74FF48010FCF7ABBF054800F057
:103AA0000ABF044800F06ABE024800F009BE0000E8
:103AB0000004024054390220F8B500260446374677
:103AC0000096F94D0320FFF7D6FFE06800690090EB
:103AD0007F1CAF4201D90020F8BD00980028F1DA20
:103AE0000098002140F0010000900098E268106109
:103AF000E06802690092491CA94202D8009AD207E4
:103B0000F7D10320FFF7B7FF3046F8BD30B50546C3
:103B10000020EC78002C0CD105EB8202DB1C9B080A
:103B2000D2F8D02003E051F8045B1560641C9C427D
:103B3000F9D330BD10B504460023D21C9008D4F848
:103B4000D02003E0146841F8044B5B1C8342F9D396
:103B5000084610BD70B50022C27001238370402654
:103B60008680022615461446012901D059B115E078
:103B7000C3720821017004214FF0A04241709115D9
:103B8000C18006720AE0C4720C21017006214170E6
:103B90004FF4A061C180C54A0672837202F50061CC
:103BA000C0E9032100210AE002EB411303F510668E
:103BB00000EB810403F53063A661491C636543781B
:103BC0008B42F1D802F5806141614031C0F8CC10E0
:103BD000002108E002EB411300EB810403F5A06330
:103BE000491CC4F8903003788B42F3D8002108E0D8
:103BF00002EB013300EB810403F58053491CC4F848
:103C0000D03003788B42F3D802F56062C0F80C2103
:103C1000284670BD70B50446017A0025C0680129A8
:103C200015D0C16841F04001C1602046FFF744FF54
:103C3000617A4FF4341009B14FF47410E16888636D
:103C40001420FFF723FFE078012819D020E0816BD2
:103C5000627A21F480310AB141F480118163E06815
:103C6000C16821F0401121F42021C1602046FFF7F6
:103C700023FFE07801280BD1E1682A208860E2E781
:103C8000E068816821F01E010A3141F02001816065
:103C9000284670BDC0680022816841F00101816042
:103CA00010467047C0680022816821F001018160E0
:103CB0001046704738B50024034622460094009809
:103CC00040F020000090009861F38A100090009866
:103CD000D96808617448D9680B690093521C824204
:103CE00002D8009B9B06F7D40320FFF7C4FE2046B2
:103CF00038BD38B50024024621460094009840F0B3
:103D0000100000900098D36818616748D268136962
:103D10000093491C814202D8009BDB06F7D40320A4
:103D2000FFF7A9FE204638BD10B5C3680024D86847
:103D3000012920F0C04201D019B104E042F0005244
:103D400001E042F08042DA603220FFF79FFE204619
:103D500010BDC068406900F001007047C06840694C
:103D600010F0010F01D00020704701207047C0689B
:103D7000406910F0010000D001207047C06841691F
:103D8000806908407047C0684068704700690268F1
:103D900061F301020260704730B5C368002211462A
:103DA0009A61C4686FF080436361C568541E6C609B
:103DB000C4686361C4683E4BA361C37803B9102132
:103DC000C06841F4872141F00811836941F4401132
:103DD0008B430B438361104630BD2DE9F04104460F
:103DE0000027D0F80C013D462B460760206901688A
:103DF00021F4C0510160E07A4026E0BB207A01281E
:103E000058D001212046FFF7C1FFE1684FF4007050
:103E10004862AC4666F31F4C60F30F0CE068C0F8D4
:103E200028C00CEB1C4060F30F034FF4BA7060F332
:103E30001F43E068C0F8043103EB134060F30F0345
:103E4000E06866F31F43C0F8083103EB134060F3EA
:103E50000F03E06865F31F43C0F80C3103EB134018
:103E600060F30F03E068C0F8103103EB134060F318
:103E70000F03E06800E001E0C0F814311021204693
:103E8000FFF718FF2046FFF734FF2069056120691E
:103E9000456121694FF0FF3088612069C5610020CC
:103EA0004FF09042FF231BE0400D03000000044050
:103EB000000800800021A5E704EB800CDCF818E086
:103EC000DEF80010002901DA114600E02946CEF89C
:103ED0000010DCF818100D61DCF818108B60401C25
:103EE00061788142E8D8002013E004EB800CDCF814
:103EF00054E0DEF80010002901DA114600E02946FE
:103F0000CEF80010DCF854100D61DCF854108B6012
:103F1000401C61788142E8D82069016941F48071D0
:103F20000161E078012808D1032066F38A00216945
:103F300040F4803066F3594008632046FFF72CFFB9
:103F40003846BDE8F0810146002009698968C1F35F
:103F5000410139B1012903D0022905D0032900D13B
:103F600002207047032070470120704710B5016997
:103F70000024896883691A68C1F3410129B10129C4
:103F800003D0022904D0032905D16FF30A0202E00D
:103F90006FF30A02D21C1A600069416841F4807113
:103FA0004160204610BDF0B50D7800264F78012401
:103FB000AC40324600EB8503012F17D05B6D64F3F4
:103FC0001F421C6825040DD40D8965F30A04CD78C1
:103FD00065F393448D7965F3995444F0805444F427
:103FE00000441C600978012904D005E09B6964F352
:103FF0000F02E6E7C17A29B10069C1691143C161C5
:104000003046F0BD0069C16B1143C163F8E7F0B5FC
:104010000D78002691F801C001233746AB403A469F
:1040200000EB8504BCF1010F07D0646D63F31F4200
:1040300027600978012904D005E0A46963F30F0221
:10404000F6E7C17A29B10069C1699143C16130467F
:10405000F0BD0069C16B9143C163F8E7F0B54B78DF
:104060000A7800240125D1F814C000EB8202012B4C
:1040700017D0566D32683369BCF1000F64D08D687B
:104080000CEB05077F1EB7FBF5F767F3DC43C3F3C3
:10409000C9476F4367F312033361C378012B59D0CB
:1040A0005EE097693A683E69BCF1000F0DD08B68FD
:1040B0006CF312069C44ACF1010CBCFBF3F363F30C
:1040C000DC46CB78012B05D008E06FF3120665F3D0
:1040D000DC4603E026F0C04606F100563E61C37898
:1040E000012B0ED0CB78012B12D04B69BBB10B78D2
:1040F0009D4003695E6B2E435E63CB78012B07D036
:104100000DE00D780B6900EB8505AD696B61F4E797
:1041100003699B681B0ADB070CD042F080520B78C6
:1041200042F0044200EB83039B691A60CA78012ABB
:1041300003D026E042F00052F1E78A8A93B20A786F
:10414000C968FFF7E3FC1CE08F6867F3120365F3AF
:10415000DC43A1E70D780B6900EB85056D6D6B61A4
:10416000CB78012B06D14B7913B142F0005201E01C
:1041700042F08052097842F0044200EB8100406D29
:1041800002602046F0BDF0B54B7800254A69012B4E
:1041900014D00B7800EB8304636D1E681B69E2B3D7
:1041A0008A684A6162F3060323F4C012636D02F564
:1041B00000221A61C278012A32D037E083691F6871
:1041C0001C6932B18E68B24208D966F306044E61AA
:1041D00006E024F07F0222F4C01203E062F306043A
:1041E00024F4C01202F500221A61C278012A05D116
:1041F0000C780A6900EB8404A469626147F0044208
:104200001A60C278CAB94A69BAB10A78006901214C
:104210009140426B0A4342630FE0FFE70A7AC1E72D
:104220000B780A6900EB83035B6D5A61097846F0ED
:10423000044200EB8100406D02602846F0BD02465A
:104240004B780978002002EB8101012B05D0496DE4
:104250000A6842F400120A6070478A6911680029EE
:1042600001DA41F0804141F400111160704710B54E
:1042700003464C780A78002003EB8202012C09D017
:10428000526D1368C97823F40013032904D002295E
:1042900002D003E09269F4E743F08053136010BD4D
:1042A00000698169C0690840000C704700EB81011A
:1042B000496D8968006940690840704700698169F3
:1042C000C069084080B27047426D5C491161C17895
:1042D000012908D1426D00F2CC515161406D016855
:1042E0004FF080210160704710B50446D0F81801E6
:1042F000002819D020698068C00715D0A07A30B195
:10430000D4F80C01D4F80C1120F0030008602069E7
:10431000416841F0010141600520FFF7B7FB2069CA
:10432000416821F00101416010BD817A00290AD065
:1043300001698968C90706D0D0F80C11D0F80C01C2
:1043400021F003010160704710B50446012084F894
:1043500012010020FF2206E004EB80018B699A60C5
:10436000496D8A60401C61788142F5D8216900203E
:104370000861216948612169C8612169401E88611D
:104380002046FFF7B6FC2046BDE81040102191E41E
:104390004A780978012A00EB810006D0406D006858
:1043A00081020ED54FF48050704780690068810209
:1043B00001D510207047800301D5202070473020A0
:1043C0007047800302D54FF4005070474FF44050BF
:1043D000704730B44C780B78002500EB8303012C38
:1043E0000BD05C6D2368B2F5805F17D0B2F5005F2B
:1043F00017D0B2F5405F0CD007E09C692368102A03
:1044000005D0202A0DD0302A03D092B113E030BC61
:1044100015E79A0208D54D7130BC28E743F4001324
:1044200009E043F0006306E043F0806040F0802341
:1044300001E023F40043236030BC7047180008C03B
:1044400070B50446FFF786FB0120002384F81201B3
:1044500084F814311A46402510E002EB820104EB87
:10446000C10181F81D0181F81C21A1F8222181F8E8
:104470001F31C1E94953521CC1F830316178914272
:10448000EBD8002010E000EB800104EBC10181F8C3
:10449000753381F87403A1F87A0381F87733C1E9A1
:1044A000DF53401CC1F8883361788142EBD8204645
:1044B000FFF7F8FB2046FFF7ADFB00212046FFF792
:1044C00033FC2046FFF789FC2046BDE87040FFF72B
:1044D000E1BB70B50D460E0601F07F0404EB8401CC
:1044E00000EBC10102D501F58E7101E001F55D71AE
:1044F000ED090C704D708A60CB7000D0CC80022B1F
:1045000001D100220A71FFF74EFD002070BD10B5E9
:104510000B460C0601F07F0202EB820100EBC101A9
:1045200002D501F58E7101E001F55D710A70DA09BD
:104530004A70FFF76CFD002010BD10B501F07F043C
:1045400004EB840100EBC101C1F88833C1F880237A
:104550000023C1F88C3381F8753381F87443C37834
:1045600001F55D71012B00D10A6114F0FF0F03D03A
:10457000FFF774FD002010BDFFF705FEFAE770B5E8
:1045800011F07F0404EB840100EBC1014FF0010541
:1045900081F81D5181F81C41C1F82821C1F82C2156
:1045A00001F58E714FF00002C1E9053203D0FFF72B
:1045B00055FD002070BDFFF7E6FDFAE70A4610B58D
:1045C000090602F07F0306D503EB830100EBC1016E
:1045D00001F58E7105E002EB820100EBC10101F5EE
:1045E0005D7101248C700B70D2094A70FFF727FEB1
:1045F000002010BD0A4610B5090602F07F0306D55B
:1046000003EB830100EBC10101F58E7105E002EBC4
:10461000820100EBC10101F55D7100248C700B700B
:10462000D2094A70FFF723FE002010BD10B50A061C
:1046300004D501F07F01FFF73DFB01E0FFF759FBD7
:10464000002010BD0069002261F30A1201681143C5
:10465000016070470069416821F002014160032058
:10466000FFF714BA0069416841F00201416003207C
:10467000FFF70CBA0A0608D501F07F0101EB8101B2
:1046800000EBC10101F58E7105E001EB810100EB4A
:10469000C10101F55D71FFF77BBE0B0608D501F086
:1046A0007F0101EB810100EBC10101F58E7105E095
:1046B00001EB810100EBC10101F55D71FFF789BEDE
:1046C00070B50446806D85682169D1F884100D406D
:1046D000E90713D001258560E078012808D1A06D95
:1046E0000069D4F8A413C0F31200081AC4F8B40384
:1046F000FA4801210068026820469047A80702D5C1
:10470000A16D02208860012070BD2DE9F0470E46A2
:1047100001EB860100EBC1048146D4E94C01401A4B
:10472000D4F8241104F58E74814200D20846C01CCE
:10473000870809EB860812E0451AA068A84200D253
:104740000546E81C8708ABB2F2B24846E168FFF7BD
:10475000DDF9E0682844E060A0692844A061D8F849
:104760001800806980B2B84205D9D4E905018142B8
:1047700001D20028E0D10120BDE8F08770B50546E0
:104780000069416C426BC2F3400241EAC211EA691E
:1047900094680C40E1070CD0416B21F002014163A9
:1047A000E86901248460CD482146006842682846B3
:1047B0009047A00702D5E86902248460200702D54B
:1047C000E86908248460E00602D5E8691024846062
:1047D000600602D5E86940248460200606D50121E0
:1047E0002846FFF792FFE96980208860012070BDAC
:1047F0002DE9F04106460024FFF760FD074655E02D
:10480000F80751D03069E1B20369426BCA4006EB48
:10481000810102F00102896943EAC2128D681540E4
:10482000E9071AD00125426B05FA04F18A43426375
:1048300006EB840080698560A848E1B200684268A0
:1048400030469047F078012807D134B996F8110125
:10485000042802D13046FFF737FD280704D506EBC0
:104860008400082580698560E80604D506EB84008D
:10487000102580698560680604D506EB8400402514
:1048800080698560A80704D506EB8400022580694D
:104890008560280608D521463046FFF736FF06EB2F
:1048A00084018020896988607F08641C002FA7D15B
:1048B0000120BDE8F0812DE9F04706460024FFF70E
:1048C0004DFA00287ED03046FFF758FA05007AD01E
:1048D000280303D5304600F048F90446680303D5A1
:1048E0003046FFF785FF0443A8074FF0000A02D5C2
:1048F000F16802204861DFF8E4814FF00109002DE2
:1049000018DAB07A30B1D6F80C01D6F80C1120F0D4
:10491000030008603069416821F001014160D8F866
:104920000000816930468847F1684FF000404861D7
:1049300044F00104280503D5304600F0E3F80443B1
:10494000280709D5D8F80000C16830468847F168C3
:104950000820486144F00104E80603D5304600F021
:1049600091F80443E80403D5304600F046F80443C8
:10497000A80419D53046FFF7F9FAF068C768304641
:10498000FFF7E1FA03282ED086F80290402127F4A1
:104990007050B18000F5A050F168C860F1684FF424
:1049A0000050486144F00104E8020AD5D8F800003C
:1049B000C16930468847F1684FF48010486144F07F
:1049C000010401E00DE00DE0A8020AD5D8F80000CE
:1049D000016A30468847F1684FF40010486144F09E
:1049E00001042046C8E686F802A04FF4007127F4BF
:1049F0007050B18000F51050CEE770B504460069E4
:104A000000250126416821F0010141602946204628
:104A1000FFF750F90020FF2206E004EB80018B69CC
:104A20009A60496D8A60401C61788142F5D821699D
:104A30004FF0FF3088612846216966F30F0066F366
:104A40001F40C861216945F00B0048612169C1F828
:104A50008400216945F00B000861216948642069E0
:104A6000016821F4FE6101602046FFF72DFCE1683A
:104A70004FF4805048611948006801692046884712
:104A8000012070BD70B50546C068816921F0100134
:104A90008161E868066A06F00F0000EB800005EB14
:104AA000C004C6F3434004F55D74072823D2DFE851
:104AB00000F0222204222222170047F6F07006425C
:104AC00019D0C6F30A1632462846E168FFF732F8D5
:104AD000E0683044E060A06930440BE060380220B8
:104AE000082205F2CC512846FFF724F8A069C6F346
:104AF0000A110844A061E868816941F010018161F0
:104B0000012070BD38B5044600208DF8000094F8EF
:104B100012018DF800003E48006841692046884730
:104B200020698068E2684FF400615161A17AD1B1D7
:104B3000C00718D094F81501012814D19DF8000081
:104B4000032810D1D4F80C01016841F00101016083
:104B5000D4F80C01016841F0030101602D4801689F
:104B600041F006010160012038BD2DE9F041054604
:104B70000024FFF795FB0746DFF8948043E0F80731
:104B80003FD0E1B22846FFF791FB0646C00725D08B
:104B900005EB84000126416D8E60E97801290CD176
:104BA000406D016904EB840005EBC000C1F3120104
:104BB000D0F87C23511AC0F88C13D8F80000E1B269
:104BC000026828469047E878012807D134B995F85B
:104BD0001101052802D12846FFF776FBB00704D55E
:104BE00005EB84000226406D8660300709D5D8F8B1
:104BF000000081682846884705EB84010820496D3C
:104C000088607F08641C002FB9D1012051E60000A4
:104C10006038022010ED00E010B504460223402267
:104C20008121FFF756FC0223402201212046FFF795
:104C300050FC0323082282212046FFF74AFC8449C6
:104C4000022008710020487182480168884740238B
:104C5000814A01212046FFF770FC002010BD10B5ED
:104C600004468121FFF753FC01212046FFF74FFC4A
:104C700082212046FFF74BFC7648406880470020A1
:104C800010BD70B50C460546744809783A2211F0FB
:104C90006003A0F1310622D0202B05D02146284602
:104CA00000F024FB022070BD6A48E28883688AB164
:104CB0000806607806D56949113998476749E2883E
:104CC000113920E0C6E9050264492846113900F08F
:104CD000CAFA28E0002260781146984723E06178FC
:104CE000062904D00A2912D00B291CD113E06188AF
:104CF0002123B3EB112F05D15848E28809303A2A15
:104D000000D93A220146284600F094FA0BE05349B4
:104D100001222D39F7E7608810F0FF0F05D02146FA
:104D2000284600F0E3FA002070BDC0B27060FAE7D8
:104D300010B54A4C313C6069FF2807D04549A2694B
:104D40008B6804F120019847FF206061002010BDAE
:104D500070B5424D313D2978012919D12A690026C3
:104D600052B12946402AC9688CB207D94023403144
:104D7000403AC5E9031205E02E7009E01144C5E987
:104D8000031693B2344940310A198121FFF7F7FB2A
:104D9000002070BD10B5044601EB810004EBC0009B
:104DA000B0F88C0381B22B4802692B48904740230E
:104DB000294A01212046FFF7C0FB002010BDF0B4B6
:104DC000264D313D297801290AD0E9680026B1F540
:104DD000006F00D1EE60D5E90221914202D12E7020
:104DE000F0BC704702D9C1F5006201E0A2EB0102FC
:104DF0002A61402A8CB205D940234031403AC5E9A6
:104E0000031203E01144C5E9031693B2012129708E
:104E1000114940310A19F0BC8121FFF7B0BB0F4A9C
:104E200010B5313AD169491CD161292903D100213A
:104E3000D161FFF7C4FF002010BD43200880074860
:104E4000093870474320088004483A307047000012
:104E5000883802202038022088400220693702204A
:104E60000020704700207047042824DD244A2028B1
:104E700002D021281FD10DE0CB78086863F31F60B2
:104E8000106008791071487950718879907101200B
:104E9000D07110E0107808701088000A487010680F
:104EA000000C88701068000EC87010790871507975
:104EB00048719079887100207047F0B50022114E3A
:104EC000114C4FF4006C174608E03368855CE554DC
:104ED0005B1C3360634500D33760521C8A42F4D3B5
:104EE0000020F0BD70B50D460646002403E0305D9D
:104EF000FCF794FB641CAC42F9D3002070BD0000A9
:104F00001838022040370220C84002200020704795
:104F10002DE9F0411D46174688460446069EFEF7D9
:104F200021FD04F2E452414682E8E0002046FFF70A
:104F300087FAD4F8E805006880472046BDE8F041CC
:104F4000FEF765BD1CB50446694600F09DFB9DF863
:104F5000002012F01F010AD001290DD0022910D023
:104F600002F080012046FFF729FB00201CBD6946A6
:104F7000204600F090FAF8E76946204600F001FB71
:104F8000F3E76946204600F017FBEEE770B50546EB
:104F900041B1D5F8E4058269FAB195F81201032808
:104FA0002AD02BE095F8110105F55D74032825D171
:104FB000A168E069884211D9401AE061E8780128C7
:104FC00002D1E0680844E060E069884200D3084606
:104FD00082B22846E16800F056F90FE0D5F8E40502
:104FE000016929B195F81201032801D128468847A3
:104FF000284600F051F901E028469047002070BD96
:1050000070B5054641B1D5F8E40542698AB395F813
:105010001201032846D047E095F81101002605F556
:105020008E74022833D1E169A06881420FD9081A31
:10503000E061E878012803D1D4E902100844E06077
:10504000A08BE16882B2284600F004F91FE0216AD3
:10505000B1FBF0F200FB121262B981420AD3606A1E
:10506000814207D200221146284600F0F3F866621A
:105070000DE016E0D5F8E405C16829B195F81201F4
:10508000032801D128468847284600F016F995F8EC
:105090001601012808D1324800682969486085F85E
:1050A000166101E028469047002070BD10B500232E
:1050B000044640221946FFF70CFA002340228021C3
:1050C0002046FFF706FA012084F81201D4F8E8150B
:1050D000A07849688847002010BD10B50446D0F874
:1050E000E80500698047032084F81201002010BD04
:1050F00010B590F8121180F81311042180F81211E4
:10510000D0F8E805C0688047002010BD10B5D0F881
:10511000E415C96901B18847002010BD10B50446E7
:10512000D0F8E405026820469047D4F8E805806886
:105130008047002010BD10B5D0F8E4255268904794
:10514000002010BD10B5D0F8E415096A884700208A
:1051500010BD10B5D0F8E415496A8847002010BD8D
:105160006438022012200880174870470420088005
:105170001548001F704710B50A46144914A000F0E6
:10518000A5FA124810BD10B50A46104919A000F042
:105190009DFA0E4810BD10B50A460C491AA000F041
:1051A00095FA0A4810BD10B50A4608491AA000F041
:1051B0008DFA064810BD10B50A46044919A000F042
:1051C00085FA024810BD000088380220C848022035
:1051D00053544D3332205669727475616C20436F9D
:1051E0006D506F727420696E204653204D6F646558
:1051F0000000000053544D6963726F656C65637401
:10520000726F6E6963730000303030303030303090
:10521000303530430000000056435020436F6E6627
:105220006967000056435020496E74657266616379
:105230006500000010B5C0F83C210223C0F83821F9
:1052400080F81131134600240A462146FFF797F9EA
:10525000204610BD10B5134600240A462146FFF72C
:105260008EF9204610BD10B5C0F894230323C0F872
:10527000902380F81131134600240A462146FFF797
:105280005CF9204610BD10B5134600240A4621469D
:10529000FFF753F9204610BD70B5054600240420E1
:1052A00085F811012346224621462846FFF767F973
:1052B0002846FFF709F8204670BD70B50546002462
:1052C000052085F811012346224621462846FFF78E
:1052D00034F92846FEF7F8FF204670BD01EB810146
:1052E00000EBC100B0F88C0380B2704710B50446E3
:1052F0008021FFF763F900212046FFF75FF9204680
:10530000BDE81040FEF7E0BF70B50A46FB4D897856
:1053100004462970012905D894F81201022806D004
:1053200003280BD02046BDE870401146DEE7A1B14E
:1053300084F81011032084F812010BE091B194F865
:105340001001884209D001462046FFF7F4FE297873
:1053500084F810112046FFF7E1FE2046BDE87040BA
:10536000FFF79ABF022084F8120184F8101120463A
:10537000FFF7E1FEF1E738B5044648880D46010A1B
:1053800008296AD2DFE801F06904142C69695567BD
:10539000D4F8EC15A0780A68694690470146E88879
:1053A000402803D094F81201012863D108204FE06F
:1053B000D4F8E415A0788A6A694690470146A07837
:1053C000012808D1227A012A05D1D4F8E415CA6A45
:1053D00069469047014602204870C4F8F01549E03C
:1053E000C0B2062839D2DFE800F003080D12171CFE
:1053F000D4F8EC15A0784A6817E0D4F8EC15A0783A
:105400008A6812E0D4F8EC15A078CA680DE0D4F8E8
:10541000EC15A0780A6908E0D4F8EC15A0784A6980
:1054200003E0D4F8EC15A0788A69694690470146F4
:1054300020E0A07888B9D4F8E4158A6A69469047D4
:10544000AF49827B0A71C27B4A71007C88710A2055
:10545000ADF8000012E0A07820B129462046FFF701
:1054600045FF38BDD4F8E415CA6A6946904707225B
:1054700001464270BDF800000028F2D0EA88002AF8
:10548000EFD080B2824200D90246ADF8002020461B
:10549000FFF7D0FE38BD2DE9F0414A7800270126FC
:1054A0000A2A43D2DFE802F03C5542524208054244
:1054B0002A27FFF760FF61E004468888C8B9C888DA
:1054C000B8B9887800F07F0594F81201032810D04D
:1054D00084F8145129462046FFF7B4F82046FFF718
:1054E000DBFE1DB1022084F8120147E084F812614E
:1054F00044E020461AE0FFF707FF3FE0CA88012A90
:1055000014D190F81221022A02D0032A0ED103E00E
:105510007A490122083116E0012200F5887112E073
:1055200090F81221022A04D0032A02D0FFF7DEFEEF
:1055300024E07249CE60D0F818210AB10322CA6073
:105540006E4902220C31FFF775FE17E000F0E5F816
:1055500014E0044690F81201022801D00328C8D1B3
:10556000488801280AD10020C4F81801D4F8E405BD
:105570008268204690472046FFF78EFE3846BDE8F9
:10558000F08170B5054690F8120100260C460328FC
:105590000DD1207901280AD8D5F8E405826828467B
:1055A0009047E08830B92846FFF776FE02E02846AB
:1055B000FFF79CFE304670BD70B50D460446097974
:1055C0006878002658B3012816D0032831D194F802
:1055D000120102282FD0032827D1688828B921B1C9
:1055E000802902D02046FEF7E9FFD4F8E4052946D9
:1055F0008268204690470EE094F8120102281AD0E3
:10560000032812D16888A0B929B1802903D0204687
:10561000FEF7F0FFE9E72046FFF73EFE09E094F8C9
:105620001201022807D003280DD029462046FFF793
:105630005DFE304670BD0029FBD08029F9D02046A0
:10564000FEF7BCFFF5E72D4A08064FF000034FF0C8
:10565000010508D501F07F0000EB800004EBC000DD
:1056600090F81E0105E001EB810004EBC00090F80A
:10567000760308B1556000E0536020490222091DFD
:105680002046FFF7D7FDD4E790F8CC250A7090F8B4
:10569000CD254A7090F8CE2590F8CF3502EB032245
:1056A0004A8090F8D02590F8D13502EB03228A8009
:1056B00090F8D22590F8D33502EB032292B2CA803B
:1056C0000121C0F8402180F81111704770B5002306
:1056D000002821D00446002502E06D1CEDB2641CB8
:1056E0002678002EF9D1022404EB45041480CC5412
:1056F0005B1C0322CA5400245B1C0AE0A43802206D
:105700009A380220CA545B1CDAB28C54521CD3B2B1
:10571000401C0278002AF5D170BD10B504464888B7
:10572000012201280FD0022831D1888810F0FF0F04
:105730002DD121694968000A06281FD2DFE800F050
:105740001E0B0F13171BC4F81821D4F8E405826848
:105750002046904716E021F0700110310EE021F054
:10576000700120310AE021F07001303106E021F0B3
:105770007001403102E021F07001503104480160B5
:1057800084F816212046BDE81040FFF785BD10BD06
:10579000643802200F490520087070470D49052024
:1057A000087070470B4906200870704709490520AA
:1057B00008707047074905200870704705490520A3
:1057C0000870704703490520087070470148007849
:1057D00070470000B438022030B50B460146002067
:1057E0002022012409E021FA02F59D4205D303FAA3
:1057F00002F5491B04FA02F52844151EA2F1010224
:10580000F1DC30BD064C074D06E0E06840F00103D6
:1058100094E8070098471034AC42F6D3FAF7CAFC74
:10582000047100082471000870B58D1810F8014B40
:1058300014F0030201D110F8012B231106D110F846
:10584000013B03E010F8016B01F8016B521EF9D126
:10585000ABB110F8012B04F00C048A1A0C2C03D005
:10586000A2EB84129B1C08E010F8014BA2EB04226F
:10587000F8E712F8014B01F8014B5B1EF9D5A9427C
:10588000D4D3002070BD00000FB4054B10B503A9A0
:10589000044A029800F02CF810BC5DF814FB0000DC
:1058A00039350008203702200FB4084B10B504A981
:1058B00002AA039800F01CF8044602A9002000F098
:1058C000B8F9204610BC5DF814FB0000335C0008FA
:1058D00002E008C8121F08C1002AFAD170477047B9
:1058E000002001E001C1121F002AFBD17047000017
:1058F0002DE9FF4F8BB088460546002606E0252897
:105900000BD0DDE90D1290476D1C761C287800281D
:10591000F5D10FB03046BDE8F08F0024A146A24675
:105920000122AE4900E0044315F8013F203B02FA92
:1059300003F00842F7D128782A2810D06FF02F0200
:105940002878A0F13001092915D809EB890102EB6B
:10595000410144F0020400EB01096D1CF0E758F826
:10596000041B5FEA010903D544F40054C9F100099E
:1059700044F002046D1C28782E2817D115F8010F69
:1059800044F004042A280ED06FF02F022878A0F1EA
:10599000300109290AD80AEB8A0102EB410100EB28
:1059A000010A6D1CF2E758F804AB6D1C28786C28CE
:1059B0000FD006DC4C2817D068280DD06A2814D1E7
:1059C00004E0742810D07A280FD10DE044F40014BC
:1059D0000AE044F4801401E044F440146978814200
:1059E00002D104F580146D1C6D1C2878692865D0DF
:1059F00006DC00288DD0632827D0642806D15DE01E
:105A00006E2808D073282AD0752877D0DDE90D12CA
:105A10009047761CE0E0C4F30250022809D0032826
:105A20000DD0D8F8001004280DD00E6008F104083D
:105A3000D2E0D8F80010F217C1E90062F6E7D8F812
:105A400000100E80F2E70E70F0E718F8041B8DF8D6
:105A5000001000208DF80100EB46012003E058F80B
:105A600004BB4FF0FF3061074FF0000701D40AE09C
:105A70007F1C57450DDA8742FADB1BF80710002917
:105A8000F6D106E07F1C8742FCDB1BF807100029DB
:105A9000F8D1DDE90D23A9EB07008146214600F08E
:105AA000B1F83044C61904E0DDE90D121BF8010B12
:105AB00090477F1EF8D22146484688E058F8040BEC
:105AC000C4F302514FF00A0B032900D100B204299C
:105AD00000D140B2002802DA40422D2102E0210527
